:020000040800F2
:10000000E80B0020D5000008F5300008B32C0008EC
:1000100000000000000000000000000000000000E0
:10002000000000000000000000000000F1310008A6
:1000300000000000000000003D31000865320008AB
:10004000E7000008E7000008E7000008E7000008F4
:10005000E7000008E70000083D120008E70000087C
:1000600000000000E7000008E70000080112000897
:10007000E7000008E700000800000000E7000008B3
:1000800000000000E7000008000000000000000081
:10009000E700000800000000E7000008E700000893
:1000A000E7000008E7000008E7000008E700000894
:1000B000B1390008E700000800000000000000005F
:1000C0000348854600F0EAFC004800478D430008DD
:1000D000E80B00200448804704480047FEE7FEE79D
:1000E000FEE7FEE7FEE7FEE721340008C100000856
:1000F00030B50B46014600202022012409E00D46C0
:10010000D5409D4205D31D469540491B2546954047
:1001100040191546521E002DF1DC30BDF0B51FB45C
:100120000646002082B005464024019100901BE065
:10013000019922460F46304600F09EFA049A059B2C
:10014000801A994110D310461946224600F084FACD
:10015000361A8F410197224601200021009F00F0AE
:100160007BFA38184D4100902046641E0028DFDCE1
:10017000019B00982946324607B0F0BD38B50446C9
:10018000C0681821401E4843A16840183C214843DC
:10019000616840183C2148432168451860690C217A
:1001A0004843216940186921C900401A302100F0F4
:1001B0003FFA114A50434219084600921A2902DBBD
:1001C0000E49511800910C2100F032FA0C4A5043AC
:1001D000009A801800900B4806E0491E425C074BCD
:1001E0005A43009BD21800920029F6DC214668464B
:1001F00000F05CFA009838BD801F8607805101002E
:100200008033E1018545000803460B439B0703D07B
:1002100009E008C9121F08C0042AFAD203E00B78CB
:100220000370401C491C521EF9D27047D2B201E043
:100230000270401C491EFBD270470022F6E710B541
:1002400013460A4604461946FFF7F0FF204610BD44
:1002500030B505462A460B4610781C78521C5B1CAC
:10026000002801D0A042F7D0002C03D0002802D0F3
:100270006D1CEFE7284630BD421C0178401C002968
:10028000FBD1801A704770B5064603F001FC046884
:1002900005460A220021304600F042FA2C6070BD6B
:1002A000F8B502464A40D40F42004B0052085B08A2
:1002B0009A4202D20246084611464A0023D0C30D94
:1002C0004A00DDB2120EAD1A202D35DA49020126A0
:1002D000490AF6058A19002C00D0524220214F1BF2
:1002E0001146B9402A411018C20D9A4221D0002C63
:1002F00017D0012D08DCDA05801AD20F8019D20739
:10030000DBB200F04DFAF8BDDA05801A0123400097
:100310001B06C01880185A428018CA0F10434900A3
:1003200007E04908C2071143DA05801A801940081E
:10033000801800F02DFAF8BD61000122511A001B4F
:10034000F7E70122D2075140AAE70122D207504025
:10035000A6E7024670B54A40D30FDB0740002DD018
:100360004A002AD0010E140E000212020919400A96
:10037000520A8418E50104465443000A120A2E0466
:100380005043A4194219200CC543AA18120C012588
:10039000AD03521C521912047F39240400D0521CA0
:1003A000104301D44000491EC2B20C06C0092018F7
:1003B000401C4008802A02D003E0002070BD4008A5
:1003C0004000002900DA0020184370BD420005D02B
:1003D0004200120E52428A4201DB00207047C905DA
:1003E00008187047F0B51FB488B00B99099800241D
:1003F00048400999C00F490049080991C0070B9965
:100400000090490049080B9109990898A6460843AD
:100410001CD00B990A98084318D009980124400071
:10042000420D4800410D099824050003000B2043AC
:1004300009900B980003000B20430B9050181C49A7
:100440004018002201901446104605E000200146A5
:100450000DB0F0BD032801DA034600E003239C46FB
:10046000C11A0AAE0AE05F0008ADED5B4F00F75B12
:100470007D430027AA187C41491C5B1E6145F2DDC3
:10048000410004AB5A522104120C0A43240C401CB4
:100490000828DFDB019802900099704601910090D6
:1004A000059B049A0799069800F0C0F9D0E7000070
:1004B0000DFCFFFFF0B50C465C4085B0E40FE4078F
:1004C00003944C00002664085900944649080246EB
:1004D0000296224321D062460A431ED06200570D85
:1004E0004A000E032303550D012402462C4924051E
:1004F000781B1B0B360B40182343264361460090A4
:100500001C46501AB44103D30098401C009002E0EE
:10051000921800985B41002803DA0020014605B0DC
:10052000F0BD0020012109050746864611E064461A
:100530001D46141BB54106D36546521BB341744694
:1005400007430C43A646CD074008490828439218A4
:100550005B4105460D43EAD11046184313D060466F
:10056000194650407140084306D06046101AB34106
:1005700006D20122002306E000220123DB0702E06D
:100580000122D2435310009874460105381C614182
:10059000029C039D0019694100F03BF9BFE7000090
:1005A000FD03000010B500229623114600F0F8F874
:1005B00010BD00000EB505490291002100910A46C8
:1005C0000B46019100F032F903B000BD3304000086
:1005D000C20FD207400040080BD0C10D0723DB013A
:1005E000C91840020905400A1143C20840071143D7
:1005F0007047002001467047CB0FDB07490010B55C
:10060000490802460A4307D00A0D07240903E401FA
:10061000090B121B002A01DC002010BDC900440F89
:100620000C43C100E018D205801800F0B1F810BDED
:1006300070B500242546002801DA01244042002933
:1006400001DA01254942FFF753FDAC4200D0404298
:10065000002C00D0494270BD10B5202A04DB0146B1
:10066000203A9140002010BD914020239C1A03465F
:10067000E3401943904010BD10B5202A04DB084622
:10068000203AD040002110BD0B46D340D04020245A
:10069000A21A91400843194610BD000010B5024946
:1006A00000F004F810BD0000B803002070B50C463F
:1006B00000683C21FFF71CFD21603C21FFF718FD7D
:1006C00061601821FFF714FD0546A1600721001D98
:1006D000FFF70EFDA1610F48A90008180E49FFF7AA
:1006E00007FD0246443288086261E0613B2802D37C
:1006F000910700D0401C0021084B0A462161995CFB
:10070000814203D8401A521C2261F8E7401CE06085
:10071000204670BD6C0B0000B50500009145000837
:10072000F7B5009C0F4600262578641C002D05D0E7
:1007300000F0DAF90068405DC007F5D12B2D02D03A
:100740002D2D18D0641E39462046029A00F0D0F9AB
:10075000002F04D03968A14201D100993960710598
:10076000022400290BDA4042002803DD03F090F94F
:100770000460A007FEBD012080020643E3E70028D5
:10078000F8DA03F085F904600048FEBDFFFFFF7F43
:10079000002904DA401C490001D14008400070479C
:1007A00070B40024050C05D11024000402D10029E6
:1007B00021D01124050E01D100020834050F01D10A
:1007C0000001241D850F01D18000A41C002801DB3D
:1007D0004000641C002908D020252E1B0D46F54042
:1007E000A14000D001212943084301061B1B000A38
:1007F000DB1D02D5002070BC7047DB05181880187F
:100800000029F8DA401C4900F5D170BC40084000CE
:10081000704710B5002B08DA0024401C6141921883
:100820005B411A4301D14008400010BDF0B51FB430
:1008300082B005460C0003D0084603F005F902E03B
:1008400003F002F920300246009021462846FFF7C7
:1008500003FF049B059A04460F46184311430843BF
:1008600014D0184610431BD0009840210A1A18468D
:100870000599FFF701FF05460E46009A0599049871
:10088000FFF7EAFE084305D0012004E02046394680
:1008900007B0F0BD0020C11705430E432C4337437A
:1008A00000990E986305401A7905E40A00220C436A
:1008B000FD0A0A3002D500200146E9E701051019BA
:1008C00069410C9C0D9D00196941FFF7A2FFDFE70C
:1008D000F0B507460846584087B0C00F049048005E
:1008E0000E46590040084908BC1A884105D23846CE
:1008F00031461E4617460B46024658004008104334
:100900004CD0300D039040055900400D490D059025
:10091000401A0290402872DA18030121000B0905E1
:100920000843019004980092002805D00199524292
:100930000020884100920190029840210A1A0199F2
:100940000098FFF789FE05460C466B4607CB00F082
:10095000B7F8C0197141039A0E0D0023D7175640FE
:100960001A467A40164344D0049A002A2DD0029A9F
:10097000012A039A15DC1205C01A91410126360599
:10098000001C7141D20F059ED2070093019202967E
:100990002A462346FFF74AFF07B0F0BD38463146E6
:1009A000FAE71605224A0F46B218C01AB7410121CC
:1009B0000905001C4F4100187F4111461818794164
:1009C000E20F10436D19644113E0E2076D0815430F
:1009D0006408C2071443039A01261205C01A914104
:1009E0003605001C7141CE07400830434908C01845
:1009F00051412A462346FFF70CFFCDE7FFE7049855
:100A000001224000C117121A00238B41049831467D
:100A1000C417381AA141EEE730B40124E40763405B
:100A200030BC55E730B40124E407614030BC4FE7E7
:100A30000000E0FF4A0009030123090B1B051943CD
:100A40000A4B10B5520D9A4202DA0020014610BD41
:100A5000064B34339A4203DC9A1AFFF70DFE10BDA1
:100A6000034BD218FFF7F8FD10BD0000FF03000094
:100A7000CDFBFFFF10B5002904DB0124E407404251
:100A80008C412146002B04DB1C460123DB0752422C
:100A9000A341994200D1904210BD0000064C0125AF
:100AA000064E05E0E36807CC2B430C3C9847103416
:100AB000B442F7D3FFF708FB244600084446000879
:100AC00010B5202A06DBCB170846203A1041C11783
:100AD0000B4306E00B461341D0402024A21A91405C
:100AE0000843194610BD0000004870472046000822
:100AF000F7B582B0029C00272078641C1546019748
:100B0000302802D0002D15D015E020780127641C74
:100B1000782804D0582802D0002D09D00BE0002DF1
:100B200001D0102D07D1002710252078641C02E089
:100B3000082500E00A250026009610E0009901270C
:100B400069430818020C294680B2714300908E1840
:100B50003804864201D3012001902078641C294684
:100B600000F019F80028E9DA0398002805D0002FD2
:100B700001D0641E00E0029C04600198002806D0A9
:100B800002F086FF02210160C81E05B0F0BD009989
:100B900030040843F9E73A2800D2303820230246CF
:100BA0009A43412A01D310463738884201D30020A6
:100BB000C043704738B50446064805490068FFF74A
:100BC00097FA604300E0401E00900028FBD138BD3A
:100BD00040420F00280000200A4881684205114366
:100BE000816001680905FCD501680122D202114328
:100BF00001600549054A098BD180816804221143AF
:100C000081607047002401406000F81F0000002050
:100C100070B50D4C0646002525700C4B0A220CA120
:100C20000E4801F0DEFF304600F002FE2078012879
:100C300007D0FF21204601318630FFF7FEFA012060
:100C400070BD2570002070BDE8000020FFFF00008F
:100C500041542B4E414D453F0D0A0000F00200204B
:100C600070B5144C064601220421204600F0C6FE51
:100C7000642000F0DDFD00220421204600F0BEFECD
:100C8000642000F0D5FD0C4C002525700B4B032291
:100C90000BA10C4801F0A5FF304600F0C9FD2078FB
:100CA000012800D125700448FF2101318630FFF76B
:100CB000C4FA70BD00040050E8000020FFFF0000EF
:100CC0002B2B2B00F002002070B50D4C06460025A2
:100CD00025700C4B0B220CA10E4801F082FF304610
:100CE00000F0A6FD2078012807D0FF212046013121
:100CF0008630FFF7A2FA012070BD2570002070BD7C
:100D0000E8000020FFFF000041542B4543484F3DC1
:100D1000300D0A00F002002070B50646C820FFF72B
:100D20009FFF0E4C002525700D4B0E220DA1114882
:100D300001F057FF10A002F063FE304600F078FD8E
:100D40002078012807D0FF21204601318630FFF7A7
:100D500074FA012070BD2570002070BDE8000020ED
:100D6000FFFF000041542B534C4545503D302C3182
:100D70000D0A0000F002002041545F73656E643A72
:100D800041542B534C4545503D302C310D0A000049
:100D900070B5104C0546002626700F4B09220FA196
:100DA000114801F01EFF11A002F02AFE284600F0B3
:100DB0003FFD207825468635012804D12670294636
:100DC0000FA002F01DFEFF2101312846FFF735FA82
:100DD00070BD0000E8000020FFFF000041542B45DB
:100DE0005849540D0A000000F002002041545F737E
:100DF000656E643A41542B455849540D0A00000071
:100E00005243563A25730D0A00000000F3B5164C04
:100E1000064681B00025FF27204625700137863021
:100E200039460090FFF709FA314610A002F0E8FDBC
:100E30003046FFF721FA82B2104B3146104801F0DC
:100E4000D0FE029800F0F4FC2078012805D0394645
:100E50000098FFF7F2F90020FEBD257009A0009967
:100E600002F0CEFD0120FEBDE80000202A2A2A4122
:100E7000545F53454E443A2573000000FFFF0000C5
:100E8000F00200202A2A2A41542D5243563A257353
:100E90000D0A000030B5184C05468DB00122042122
:100EA000204600F0ABFD642000F0C2FC00220421CB
:100EB000204600F0A3FD642000F0BAFCC820FFF734
:100EC00067FF2846FFF784FB02460B460BA16846E6
:100ED00002F0A6FD6846FFF7CFF901460BA002F02D
:100EE0008FFD6846FFF7C8F982B2134B6946134875
:100EF00001F077FE0DB030BD000400507B2262612E
:100F000074223A252E32667D000000002A2A2A2A01
:100F10002A2A2A2A2A2A2A2A2A2A2A2A2A2A2A2A31
:100F20002A2A2A2A2A2A2A2A2A2A2A2A2A6C656E60
:100F3000A3BA25640D0A0000FFFF0000F0020020A4
:100F4000F0B5574887B0017801296ED100270770A6
:100F500003F0A4FA524853A186300590FFF778F9C0
:100F6000544E554D554C00284BD0377754A002F0C5
:100F700047FD6068002835D003F090FA6168884228
:100F80002BD254A002F03CFD03F088FAA188081A85
:100F90002080297854A002F033FD287805281FD03E
:100FA00003202870C820FFF7B7FE02F063FA2088FC
:100FB00002F0F6F80121084600F09CFD02F056F917
:100FC000322000F035FC4EA002F01AFD297846A030
:100FD00002F016FD00F082F9B0616760278057E0EB
:100FE0000420DEE7C820FFF797FE02F043FA012154
:100FF000084600F07FFD02F039F941A002F000FD43
:1010000046E044A10598FFF723F90127002802D004
:101010003777032007E041A10598FFF719F9002869
:1010200004D037770420287032E036E03DA10598DF
:10103000FFF70EF9002813D0377714216846FFF721
:10104000FCF86B4638A237A1059800F017F90006A6
:10105000000E1DD06846FFF716F900F069F817E09A
:1010600032A10598FFF7F4F8002811D03777142142
:101070006846FFF7E2F86B462BA22CA1059800F01A
:10108000FDF80006000E03D06846FFF7FCF860602C
:10109000FF2101310598FFF7D0F807B0F0BD00003F
:1010A000E8000020444953434F4E4E4543544544C5
:1010B000000000003400002000000020100000208C
:1010C00077696C6C2020746F20736C6565700D0AF5
:1010D00000000000BFAACABCC5E4D6C3525443BB3B
:1010E000BDD0D10D0A000000B5B1C7B0B5E7BBFA5D
:1010F000D7B4CCACCEAAA3BA25640D0A0000000078
:10110000576561726B55502D2D2D2D2D2D3E0D0ADD
:10111000000000004F50454E00000000434C4F536C
:101120004500000053544D004E0000004F54000095
:1011300071B589B000240094142103A80194FFF72D
:101140007CF809A80294FFF7A9FA017D6439CEB2B0
:1011500069460E70017C491CCDB269464D70047B16
:101160008C70027A0832CA7002790A71007848716C
:1011700000F0B8FC0121174801F0A8F81649884290
:1011800023D0164A0121134801F0A6F86846C17819
:1011900001730179417341798173002203A90D48DC
:1011A00001F07AFA002801D000F066F801216846C3
:1011B000017245728472C672002202A9054801F0CC
:1011C00009FA002801D000F057F805A002F018FC39
:1011D0000AB070BDC4000020503000005050000024
:1011E00043616C6962726174696F6E5F54696D65A9
:1011F0007320737563636573732E2E2E0D0A0000C2
:1012000010B5024800F044FA10BD00007003002041
:1012100030B5446C1C252C400125A540046C65604C
:10122000046863608368102B036803D099600068CA
:10123000C26030BD9A600068C16030BD10B5082042
:1012400000F014FB10BD000010B5094801680A68E1
:1012500020231A430A6001680B68102213430B60B5
:101260000068026280220349014801F039FC10BD88
:10127000F0020020EE00002070470000F8B51E4686
:1012800015460F46FEF7E4FF04463846FEF7F4FF26
:1012900000192946FEF7DCFF0546002C03D0002D7F
:1012A00001D0AC4204D907A002F0AAFB0020F8BD8F
:1012B0003846FEF7E1FF01196A1A3046FEF7A4FF2F
:1012C0000120F8BD737472696E67206E616D6520D0
:1012D0006E6F7420666F756E64210A00F8B5194848
:1012E00001684907FCD5174940310A68164C97B286
:1012F000A78002685207FCD5086880B26080FFF7BB
:1013000059F905460E46E088FFF754F900220F4BC5
:10131000FFF768F82A463346FFF7CCF8FFF76CF979
:101320000546A0603846FFF73DF92946FFF711F85A
:101330000A21C943FFF74AF8E060322000F078FA4A
:10134000E068F8BD002401400000002000000840D3
:10135000F8B506460D464036317C01290DD00121F5
:10136000317401688A68520709D5416D2022114302
:101370004165002030740120F8BD0220F8BD174BF4
:101380006A68D80547109A42154C8A6A2B6812D0B1
:101390005B035B0B1A438A622968490305D5A16880
:1013A0000143A1600A20FFF705FC2868800312D5DD
:1013B000A06838430EE05B035B0B9A438A6229689E
:1013C000490302D5A1688143A1602868800302D542
:1013D000A068B843A06000203074F8BD0110000080
:1013E0000027014070B5040006D0606D2646002538
:1013F0004036002802D006E0012070BDA565357496
:10140000204600F0D3F8606DC00603D421688868D8
:10141000400705D5606D1021084360653574EBE722
:10142000606DFF220132904302221043606588689C
:101430008207920F5B48012A02D10A68D2072BD19A
:10144000032362689B079A4205D05B429A4202D00E
:101450005B009A4209D10A69920092080A612168E8
:101460000A6963681A430A610CE00A6992009208EB
:101470000A6181680F2292049143816081686268E9
:10148000114381602168CA6818239A43CA602168A1
:10149000CA68A3681A43CA60816801225206914350
:1014A00081608168A28E5206114381602068816844
:1014B000C90004D4816801221207114381602068A9
:1014C000C168394A1140C1602069E168022825D00D
:1014D00000200143204620300278037B52035B004A
:1014E0001A431143226B1143A26992031143E2692B
:1014F000D20311432268D3681943D160616A0A4656
:10150000FF3AC23A05D0A26A11432268D368194350
:10151000D16042780121012A02D00BE00420D8E7F3
:101520000078002823D0606D202210436065A06DF4
:101530000843A065E06B012820681FD00169C90736
:1015400003D0016949084900016120684169C9085F
:10155000C900416120684169A26B11434161A565E1
:10156000606D80088000401C6065002070BD2068B0
:10157000C26801231B041A43C260DBE70269FF2330
:101580009B009A43026120680269236CA66C1A438F
:10159000636C33431A430261206802690A430261A3
:1015A000D3E70000002701401902FEFF10B586B006
:1015B000044614216846FEF740FE0E492068884222
:1015C00016D10D48416B421511434163C16A012296
:1015D0001143C162C06A69461040059040200090E6
:1015E00003200190002002900520000700F04AF936
:1015F00006B010BD002401400010024030B5014685
:1016000020314A790023022A04D00422C2630B71DC
:10161000012030BD026814680E25AC4314600268D6
:101620001468640864001460446C1C221440012295
:101630001546006CA54045604A7118460B7130BDD7
:1016400070B50024014620314A79022A03D00421D2
:10165000C163012418E0026813680E25AB431360D0
:10166000026813685B085B001360436C1C22134024
:10167000012215469D40036C5D604A7100220A718B
:10168000816B002900D08847204670BDC06B704731
:10169000F0B4016C0D6801680C68466C1C230422D0
:1016A0001E401746B7402F420ED067070CD50C6876
:1016B000A40602D40C6894430C60416C19408A4023
:1016C000016C4A60016B1AE00227B74002462F40C6
:1016D0002032002F17D0A70715D50C68A40605D413
:1016E0000C680A25AC430C6001215171446C022145
:1016F0001C40036CA140596000211171C16A00298E
:1017000018D0F0BC08470827B7402F4212D0240752
:1017100010D50C680E25AC430C60446C01211C40B4
:101720000B46A340046C6360C163517100211171C9
:10173000416BE4E7F0BC704770B504003CD01F4833
:10174000256814212818FEF7D3FC800060641C482B
:101750002064022120462030024641712968194840
:10176000E3680140A068666918432369334318435E
:10177000A3691843E3691843236A184308432860A0
:101780000121A0688903884210D00D488030836A07
:10179000656C1C210D400F26AE40B3438362656C1F
:1017A00063680D40816AAB400B4383620020E063B5
:1017B00001215171107170BD012070BDF8FFFDBF96
:1017C000000002400F80FFFFF8B504468C46203031
:1017D00001790025012909D00126067141790027E8
:1017E000012905D0077102252846F8BD0220F8BD61
:1017F00002214171E76320680168490849000160DE
:1018000061462046FFF704FD206B00282068016830
:1018100001D00E2205E00422914301602068016896
:101820000A22114301602068016831430160DBE74F
:1018300070B5044600F0E8F80546601C02D0044884
:101840000078241800F0E0F8401BA042FAD370BDE5
:101850001C00002010B5082804D1034801F0D6F878
:1018600001F004FD10BD0000F002002010B5044995
:101870004A69024202D04861FFF7ECFF10BD000048
:1018800000040140FCB500230124A2E027462A46BB
:101890009F403A406FD04D68012D05D0022D03D0F6
:1018A000112D01D0122D16D185680326AC465D009E
:1018B000AE46AE406546B543AC46CE687546AE40D2
:1018C00065462E43866046680D79BE43ED06ED0FF2
:1018D0009D4035434560C6685F000325BD40AE4668
:1018E000AE4335468E68BE402E43C6604E68022E1B
:1018F00001D0122E14D1DE08B60036180196366AD1
:101900005D07B446EE0E0F25B54000966646AE4321
:10191000B4460D69009EB54066462E43019D2E6279
:1019200006687546AE430D79AD07AD0FBD40354332
:1019300005604D68ED004BD5294D6E6B26436E63F7
:101940009E08284DB6007519AC46AD689E07360F47
:101950000F27B740BD4305273F07B84201D10027F5
:1019600015E0214FB84201D1012710E01F4FB842C6
:1019700002D102270BE02BE01D4FB84201D1032713
:1019800005E01C4FB84201D1052700E00627B7400B
:101990002F436546AF60184D2E684F689643FF038E
:1019A00000D516432E606E684F689643BF0300D57E
:1019B00016436E60AE684F689643FF0200D516432B
:1019C000AE60EE684F689643BF0200D51643EE60E6
:1019D0005B1C0A681546DA4000D057E7FCBD0000E2
:1019E00000100240000001400004005000080050B8
:1019F000000C0050001C005000040140002A01D0DF
:101A000081617047816270470148806870470000BB
:101A10001C000020024881680278891881607047A4
:101A20001C00002010B50848002401684022114322
:101A30000160204600F00AF8002801D0012401E0EE
:101A400000F026F8204610BD0020024070B5044684
:101A50000D4D7D202978C000FEF74AFB01460B485A
:101A60000068FEF745FB00F0A5FE002809D1042C14
:101A700007D200222146401E00F020F800206C60B2
:101A800070BD012070BD00001C0000202800002057
:101A90000448416B012211434163816B02041143ED
:101AA0008163704700100240C106C90E01208840C2
:101AB000014908607047000000E100E010B501F046
:101AC0001BFB10BD024801680215114301607047FD
:101AD00000700040024801684215114301607047E0
:101AE0000070004002480168821511430160704790
:101AF000007000400A4B1A689208920002431A6074
:101B000008480369042213430361012906D040BF3A
:101B100020BF20BF016991430161704730BFF9E7E1
:101B20000070004000ED00E0F8B504460078544D28
:101B3000800672D5524E0027403EB06BC00004D4E0
:101B4000B06BA9050843B06301274E480168C90579
:101B500011D40168821511430160FFF755FF009011
:101B600005E0FFF751FF0099401A642837D845482F
:101B70000068C005F5D532680321090560680A4090
:101B80000140914208D08103890F032904D13168B3
:101B9000890301D50120F8BD2A69032109040A40FF
:101BA00022D0084090421FD0207880061CD528699A
:101BB0002A6988430121C9040A432A612A698A43A0
:101BC0002A612861C0050FD5FFF71EFF009008E0CD
:101BD000FFF71AFF0099411A2B48814201D90320CF
:101BE000F8BD28698005F3D561688803800F032854
:101BF00005D132680005824301400A4332602869FA
:101C0000032261681204114008432861002F04D0A8
:101C1000B16B012000078143B1632078C00705D074
:101C2000E868A168800880000843E86020788007A1
:101C300005D5E8680C218843E1680843E86020780E
:101C4000400706D5E86803218902884321690843D3
:101C5000E8602078000706D5E86803210903884377
:101C600061690843E8602078000606D5E86803212A
:101C700089048843A1690843E8600020F8BD00009A
:101C8000401002400070004088130000F8B50E4676
:101C900005007DD053480068C007C00FB0420AD28B
:101CA0005048016849084900314301600068C00795
:101CB000C00FB04271D128784B4C800705D5E06841
:101CC000F0218843A9680843E0602878C00752D013
:101CD0006868022817D0032818D02168012818D076
:101CE0008905002959DAE168890889000143E16022
:101CF000FFF78AFE69680746022912D003291CD023
:101D0000012926D033E021688903EAE721688901A7
:101D1000E7E74907E5E7FFF777FEC11B3348814254
:101D200023D8E0680007800F0228F4D123E0FFF7F2
:101D30006BFEC11B2D48814217D8E0680007800F59
:101D40000328F4D117E0FFF75FFEC11B274881424B
:101D50000BD8E0680007800F0128F4D10BE0FFF7F3
:101D600053FEC11B2148814201D90320F8BDE06820
:101D70000007800FF3D11B480168C907C90FB142A2
:101D80000DD901684908490031430160006800E04D
:101D900003E0C007C00FB04201D00120F8BD287891
:101DA000400706D5E068072109028843E96808432F
:101DB000E0602878000707D5E0680721C90288435A
:101DC0002969C9000843E06000F036F8E168084A74
:101DD0000906090F515CC840064908600020FFF75A
:101DE00035FEF8BD002002400010024088130000BC
:101DF0006445000828000020044805490068C968B7
:101E0000044A4905490F515CC8407047280000202A
:101E1000001002407D450008044805490068C96873
:101E2000044A8904490F515CC840704728000020CB
:101E3000001002407D45000810B5184AD1680C20FA
:101E4000084004280BD0082810D00C2810D0506867
:101E50000004410F0120C003491C884010BD1068D8
:101E6000C00601D50E4810BD0E4810BD0E4810BD6D
:101E700088020E4B000F185C0902D368890F491CB9
:101E8000DB0301D5084A05E01268D20601D5044AF1
:101E900000E0044A5043FEF72BF910BD0010024049
:101EA00000093D000024F40000127A007445000887
:101EB000FEB505007ED0FE4CE7680C20E6680740C2
:101EC0000120000406402878C00747D0082F05D01D
:101ED0000C2F0AD101200004864206D1206880031D
:101EE0003CD568680028E5D038E001206968000426
:101EF000814203D121680143216011E005230122C1
:101F00001B0492049942216802D111432160F1E738
:101F10008143216021680140009120689043206046
:101F2000686800280DD0FFF76FFD009005E0FFF70F
:101F30006BFD0099401A64287AD820688003F6D592
:101F40000CE0FFF761FD009005E0FFF75DFD0099F3
:101F5000401A6428F0D820688003F6D428788007D7
:101F600055D50923E868042F0DD00C2F01D1002E80
:101F700009D000283BD02168994301432160FFF735
:101F800043FD064627E02168490701D5002891D086
:101F900061681F22120291432A6912021143616093
:101FA0002168994301432160FFF746FFE168090674
:101FB0000A0F00E079E1BF49895CC840BE4908606A
:101FC0000020FFF743FD002872D120E0FFF71CFD41
:101FD000801B0228B0D820684007F7D560681F2111
:101FE0000902884329690902084360600FE02068FC
:101FF000400840002060FFF707FD064604E0FFF7B9
:1020000003FD801B022897D820684007F7D4287862
:10201000C0065FD5002F0CD0A869002849D02068E1
:10202000FF21013108432060FFF7EEFC06462DE05A
:10203000C0E02068800502D5A8690028A7D06068A4
:10204000072149038843296A084360606068297F43
:102050000002000A090608436060286A410B01205B
:10206000C003491C8840E16809060A0F9149895C50
:10207000C840914908600020FFF7E8FC002817D10C
:1020800028E0FFF7C1FC801B0228A3D82068800548
:10209000F7D56068072149038843296A08436060CF
:1020A0006068297F0002000A09060843606011E0A9
:1020B000E1E02168FF20013081432160FFF7A4FCAB
:1020C000064604E0FFF7A0FC801B022872D82068B7
:1020D0008005F7D42878794E000724D56869002850
:1020E000306910D0012108433061FFF78DFC00906A
:1020F00005E0FFF789FC0099401A02285AD8306998
:102100008007F6D50FE0400840003061FFF77CFC07
:10211000009005E0FFF778FC0099401A022849D8A2
:1021200030698007F6D42878400765D500200290F2
:10213000A06BC00006D4A06B012109070843A0636F
:10214000012002905E480168C90511D4016882151A
:1021500011430160FFF758FC009005E0FFF754FCC5
:102160000099401A642825D855480068C005F5D55F
:10217000FF20AA680130824203D1316901433161F5
:1021800011E001218902002A07D005231B029A428F
:1021900003D132690A433261EFE732698243326127
:1021A000306988433061A86800280FD0FFF72CFC05
:1021B000009007E05EE0FFF727FC0099411A4148D4
:1021C000814257D830698005F5D50DE0FFF71CFC3A
:1021D000009006E0FFF718FC0099411A3948814247
:1021E00048D830698005F5D40298002804D0A06B47
:1021F000012109078843A063686A002864D00C2F76
:102200003ED0012636060228206805D0B043206063
:10221000FFF7FAFB05462FE0B0432060FFF7F4FB21
:10222000074604E0FFF7F0FBC01B022822D8206815
:102230008001F7D4E96AA86AE2680843296BFD23A4
:102240001B049A4311430843E06020683043206038
:10225000FFF7DAFB054604E0FFF7D6FB401B022838
:1022600008D820688001F7D52EE0FFF7CDFB401B92
:10227000022801D90320FEBD20688001F5D423E0A7
:102280000128F8D0E06801210904AA6A01409142BE
:102290000BD10F218904EA6A0140914205D1032143
:1022A00089050840296B88420ED00120FEBD000040
:1022B0000010024064450008280000204010024041
:1022C00000700040881300000020EFE700688900DC
:1022D00050300818006870470068890050300818AE
:1022E00002607047F8B50546044620352878012875
:1022F00019D001202870022068702168CA20486225
:10230000216853204862206881680122920291432B
:10231000816020688168120191438160FFF774FB3E
:10232000064600270FE00220F8BDFFF76DFB811B7A
:102330007D20C000814206D92168FF204862032029
:1023400068702F70F8BD2068C0684007EDD521681F
:10235000FF204862012068702F700020F8BD000047
:10236000F7B5054604462035287882B0012814D0F8
:1023700001202870022068702168CA204862216804
:10238000532048622068806800264005FF27002807
:1023900012DAFFF739FB00900AE0022005B0F0BD29
:1023A000FFF732FB0099411A7D20C00081421CD802
:1023B0002068C0684007F3D4206881680122920237
:1023C000914381602068C16880221140204A8918A9
:1023D000C160FFF719FB00900DE0FFF715FB0099B6
:1023E000411A7D20C000814205D920684762032040
:1023F00068702E70D2E72068C0684007EDD521686C
:102400000398486120688168C908C9008160206814
:102410008168049A114381600E4802680121090510
:102420000A43026082680A43826020688168012250
:102430009203114381602068816812111143816009
:1024400020684762012068702E700020A6E7000017
:102450007FFBFFFF0004014010B500680B46406899
:10246000C021C94301400002000ECC04D870E40E24
:102470005C708C06A40E0904490F9C701970002A28
:102480000AD100F05CFED870587800F058FE587001
:10249000987800F054FE9870002010BD30B50B46BF
:1024A0000168896A5960016809694904490C9960A1
:1024B000006804680F482146014088024D04800EE0
:1024C00018706D0E49065D70490E99706102490ED3
:1024D00040242140D970002A0AD100F030FE187043
:1024E000587800F02CFE5870987800F028FE98700C
:1024F000002030BD7F7F7F00F8B5040050D0254616
:1025000020356878002803D12870204600F052F862
:10251000022068702168CA204862216853204862FE
:10252000204600F020FEFF2604270028206802D065
:1025300046626F7034E081681D4A114081602168F5
:1025400088686268A369104322691A43104388604F
:102550002168E0680861206801692289120411433A
:1025600001612068C16880229143C1602068C16C0C
:1025700089088900C164E169606901432068C26C0F
:102580001143C1642068806880060BD4204600F0A7
:10259000F7F8002806D0206846626F700020287087
:1025A0000120F8BD20684662012068700020F8BD57
:1025B000BFFF8FFF00680549884205D104480169C3
:1025C000012292041143016170470000002800407D
:1025D00040100240F8B505460446203528780B46E1
:1025E00001280FD00120287002206870002A0BD02B
:1025F000D8789E7800040643587809780002490389
:10260000084317E00220F8BD5878C10603D5EF2132
:1026100008400A305870D87800F099FD06045878C0
:1026200000F095FD00020643987800F090FD064307
:102630001878400306432168CA2048622168532065
:102640004862204600F08FFD0027002811D1114874
:102650000640206846602068C16880229143C160BE
:102660002068806880060CD4204600F089F8002895
:1026700007D02168FF204862042068702F70012075
:10268000F8BD2168FF204862012068702F7000208B
:10269000F8BD00003FFFFF00F8B5064604462036AF
:1026A00030780D46012822D0012030700220707051
:1026B000206800278068002A1BD0400600D4EF70F5
:1026C0002978A878090408436978EA78090212048D
:1026D0001143084300902168CA20486221685320B2
:1026E0004862204600F03FFD002837D116E0022066
:1026F000F8BD400600D4EF70287800F028FD0304F0
:10270000687800F024FD00020343A87800F01FFD64
:102710000343E878000403430093DCE7174900987B
:102720000840216808602068816801229204914372
:1027300081602969E868084321688A6810438860D5
:102740002068C16880229143C1602068806880064B
:102750000CD4204600F014F8002807D02168FF2090
:1027600048620420707037700120F8BD2168FF2096
:1027700048620120707037700020F8BD7F7F7F00B5
:1027800070B504460068C168A0229143C160FFF79C
:102790003BF97D260546F60006E0FFF735F9401BBC
:1027A000B04201D9032070BD2068C0688006F4D50E
:1027B000002070BD094910B5401E884201D9012092
:1027C00010BD074C60610321081F00F095FC00203C
:1027D000A06107202061002010BD0000FFFFFF0066
:1027E00000E000E0704770B5416F0446856F0068F7
:1027F000826810261206002A14DA212912D1816873
:10280000802291438160A06E002808D0FEF7F6FE7A
:10281000002804D0A06EFEF739FF20281DD02046E6
:1028200000F078FF20688168490614D5222D12D166
:102830008168402291438160E06E002808D0FEF755
:10284000DDFE002804D0E06EFEF720FF202804D033
:10285000204600F04FFF002070BDE667032070BDEA
:1028600070470000F8B502680446D06911689368A3
:1028700005072D0F5BD0DD07ED0FFF2621360E403B
:102880002E4367D0C60706D0CE0504D501261662B2
:10289000E26F3243E267870702220426002F06DA3E
:1028A000DF0704D027683A62E76F3743E7674707D7
:1028B00006D5DB0704D023681E62E36F1343E3678A
:1028C000020709D520220A402A4305D0236808229E
:1028D0001A62E36F1343E367E26F002A2FD080068A
:1028E00006D5880604D5216E002901D020468847E8
:1028F000E06F21688968490601D4000724D5204685
:1029000000F0F8FE20688168490619D581684022E8
:1029100091438160E06E002812D020498163E06E0F
:10292000FEF78EFE00280AD0E06E816B06E0850679
:1029300010D58D060ED5216E1CE020468847F8BDC7
:102940002046FFF78DFFF8BD2046FFF789FF0020E6
:10295000E067F8BDC50208D55B0206D50120000579
:1029600010622046FFF73EFFF8BD030605D50B06B3
:1029700003D5616E0029E0D1F8BD4006FCD54806BC
:10298000FAD51368204640218B43136020216167EC
:102990000021616600F08CF9F8BD00005136000896
:1029A00010B5040003D0606F002802D007E00120BA
:1029B00010BD002170200155204600F027F824208A
:1029C000606720680168490849000160204600F0FE
:1029D000A9FE0128ECD0606A002802D0204600F051
:1029E000A1FD206841680922D2029143416020681C
:1029F00081682A2291438160206801680122114385
:102A00000160204600F0F4FD10BD0000F0B587B075
:102A1000064614216846FDF710FC2C4D34682C48FE
:102A20000122022303210427AC4216D1446B9503F3
:102A30002C434463C46A1443C462C06A01931040C7
:102A4000059048020090002002AC83C4052069462E
:102A50000007FEF717FF07B0F0BD1E4DAC42FAD1DC
:102A6000846B01256D042C438463C46A1443C462DF
:102A7000C06A0391C007C00F05900C200025049781
:102A80006C4629C4052069460007FEF7FBFE134C7F
:102A90001148A560E56081C4E5602561656180201D
:102AA000A561A0600D48083CFEF746FE002801D055
:102AB000FEF7E2FBF466002211461C20A662FEF738
:102AC000FDFF1C20FEF7F0FFC5E7000000380140C5
:102AD00000100240004400405800024070030020F3
:102AE000F8B50446806F20284DD100290BD0002A6C
:102AF00009D00123A0681B03984206D12069002851
:102B000003D1C80701D00120F8BD25466035287CD7
:102B1000012838D00120287458206165025300260E
:102B2000E6672220A067E06E002819D01749C1622D
:102B3000E16E17480863E16E16484863E06E13467D
:102B40008663676D21683A462431E06EFEF73CFEED
:102B5000002805D01020E0672E7420206067D2E79F
:102B60002E7420680168FF22013211430160206841
:102B700081680122114381602068816840221143ED
:102B800081600020F8BD0220F8BD0000AD360008CD
:102B9000EB3600086536000810B500680A4988421F
:102BA00010D10A4C20466288A11D8630FDF72CFB0F
:102BB000A11D07A000F024FF8021A01DFDF73DFB13
:102BC0000120207010BD000000440040E8000020FB
:102BD00049444C452D2D2D2D2D3E25730D0A000009
:102BE0007047FFB50446406F83B017460D46202856
:102BF0005CD1002D0AD0002F08D0A168C00181420D
:102C000007D12069002804D1E80702D0012007B0CD
:102C1000F0BD204660300290007C012846D002982A
:102C2000012101740020E06721206067FEF7ECFEBF
:102C3000264640360190378277820120A168000342
:102C4000814202D12069002802D02F46002511E0E0
:102C500000270FE000228021204600F077FE0028A8
:102C600015D1002F15D02168387888627F1C708AB2
:102C7000401E7082708A019B002806980090E9D15E
:102C800000224021204600F061FE002808D00320E9
:102C9000BDE728882168C005C00D8862AD1CE6E745
:102CA00020206067029900200874B0E70220AEE798
:102CB0007047FEE71CB51E48002100911B4A019198
:102CC0000260C163120542608160072282630122B3
:102CD000034602612033C1601A70FF245970C23468
:102CE0004462816219730163042382614361C2619A
:102CF0004163FEF777FB002801D0FEF7BDFA0D48CF
:102D000000908001019069460948FEF721FB0028E8
:102D100001D0FEF7B1FA0848009069460448FEF772
:102D200017FB002801D0FEF7A7FA1CBD00240140C4
:102D300054000020400000180000024408B5084874
:102D4000016B012211430163006B104000220090CF
:102D500011460B20FEF7B2FE0B20FEF7A5FE08BDC4
:102D600000100240F0B587B014216846FDF765FAFF
:102D70002448C26A04210A43C262C26A0A40059218
:102D8000C16A01252943C162C16A29400591C26A0D
:102D900002210A43C262C06A052708403F07059026
:102DA0002A4680213846FEF729FE00223E21164899
:102DB000FEF724FE1548032600240090694601967C
:102DC00002943846FEF75EFD80200090029469462A
:102DD000019503943846FEF755FDFF20C230009060
:102DE0006946019602940848FEF74CFD3E2000908B
:102DF00002946946019503940348FEF743FD07B02A
:102E0000F0BD000000100240000400503319000023
:102E100010B586B014216846FDF70FFA0024194951
:102E20001948059412C07F2101608460C460046168
:102E3000FF21446141600838FFF75EFB002801D0A4
:102E4000FEF71AFA684604704470847003940122F5
:102E500069460D480494FFF71FFC002801D0FEF7D7
:102E60000BFA01206946087548758875CC750246CD
:102E700005A90548FFF7AEFB002801D0FEF7FCF9D5
:102E800006B010BD00280040C400002010B50C485A
:102E90000A490160E1214902416000218160C1606D
:102EA00001618161C1610C22016242614162FFF7EF
:102EB00077FD002801D0FEF7DFF910BD0038014092
:102EC0007002002010B50C480A490160E121490256
:102ED000416000218160C16001618161C1610C229A
:102EE000016242614162FFF75BFD002801D0FEF7FD
:102EF000C3F910BD00440040F002002010B5084C9A
:102F0000012208212046FEF779FD012220212046DA
:102F1000FEF774FD002210212046FEF76FFD10BD64
:102F20000004005010B5084C012208212046FEF78D
:102F300065FD002220212046FEF760FD01221021C0
:102F40002046FEF75BFD10BD00040050F8B5444E6E
:102F5000444C31780025012720780B0000F08BFDD0
:102F6000070905090A5105050900FEF7B7F9A0612F
:102F70002570F8BD002803D1FEF746FD606027707C
:102F8000FFF7BCFFFEF7AAF96061A269014610468F
:102F9000FDF7D7F9FDF71CFB02460B4632A000F007
:102FA0002FFD6169A069FDF7CCF93A498842E0DD5F
:102FB00005203070FEF728FD6168411A36A02161B6
:102FC00000F01EFDFF2125702D31002000F012F9C8
:102FD000207F002806D001F061FA01466069FDF704
:102FE00059FFF8BDC820FDF797FE00F043FA012114
:102FF0000846FEF77FFD00F039F92DA000F000FD36
:10300000F8BD002803D1FEF7FFFC60602770FFF7D2
:1030100089FFFEF763F96061A26901461046FDF77A
:1030200090F9FDF7D5FA02460B4627A000F0E8FC20
:103030006169A069FDF785F916498842E0DD06203F
:103040003070FEF7E1FC6168411A13A0216100F0C5
:10305000D7FCFF2125702D31012000F0CBF8BAE715
:103060000000002034000020B5E7BBFAD5FDD7AA48
:10307000D7E8C8FBB5E7D1B92D2D2D2D2D2D2D2D40
:103080002D2D2D2D2D2D2D2D2D3E20252E32660D55
:103090000A0000008FC2F53CB5E7BBFAB1BEB4CE62
:1030A000D6B4D0D0CAB1BCE43A2564206D73000018
:1030B000576561726B555020BBBDD0D12D2D2D2D84
:1030C0002D2D3E0D0A000000B5E7BBFAB7B4D7AA14
:1030D000D7E8C8FBB5E7D1B92D2D2D2D2D2D2D2DE0
:1030E0002D2D2D2D2D2D2D2D2D3E20252E32660DF5
:1030F0000A000000704700008307FF22DB0E9A40A1
:103100008907090E994000280BDA0007000F0838DC
:10311000830808489B001818C36993430B43C36195
:103120007047830804489B001B18186890430843A5
:103130001860704700ED00E000E400E0704701090E
:103140000A2200075143000F4018C0B27047002206
:10315000014602E00A39C9B2521C0A29FAD2100704
:10316000000E0843704770B504460068C168490600
:1031700013D40021C943C160FEF746FC7D260546F5
:10318000F60006E0FEF740FC401BB04201D90320E8
:1031900070BD2068C0684006F4D5002070BD0000F6
:1031A00010B504000FD0014607A000F029FC0F481D
:1031B000FFF798F8002801D0FEF75EF804222146B8
:1031C0000A48FFF7CDF810BD696E746F5F736C65C8
:1031D00065705F6D6F64650D0A77696C6C20736C48
:1031E00065657020256420730D0A0000C40000206E
:1031F0007047000070B51A4C0E46054601220821A2
:103200002046FEF7FBFB3220FEF712FB002D06D016
:10321000012220212046FEF7F1FB002205E00022DA
:1032200020212046FEF7EAFB012210212046FEF76E
:10323000E5FB3046FEF7FCFA002220212046FEF78F
:10324000DDFB002210212046FEF7D8FB3220FEF7DE
:10325000EFFA002208212046FEF7D0FB70BD0000E7
:103260000004005010B5FEF7D5FB10BDF0B59FB0BF
:10327000342105A8FCF7E1FF142119A8FCF7DDFFB4
:103280001C2112A8FCF7D9FF3D4801680324E40281
:10329000A143C21489180160FEF724FC3948016972
:1032A000A143016180150790022610200E96099017
:1032B00006270024800401250597119008950F9496
:1032C000109405A8FEF7F4FD002801D0FDF7D4FF07
:1032D0000F20199003201A901B941C9401211D9417
:1032E00019A8FEF7D3FC002801D0FDF7C5FF232065
:1032F00012900120000413901494159412A8FEF764
:1033000013FC002801D0FDF7B7FF14216846FCF735
:1033100094FF002206211C48FEF770FB02946946C8
:103320001948009701950394FEF7ACFA05273F076B
:10333000012280213846FEF761FB80200090029434
:103340006946019503943846FEF79CFA30200090B8
:1033500002946946019503940B48FEF793FA0948D5
:103360004038C16A2943C162C16AC907C90F1E91A9
:10337000C16A3143C162C06A30401E901FB0F0BDC7
:1033800000700040401002400004005010B59AB098
:1033900034216846FCF751FF142114A8FCF74DFFB7
:1033A0001C210DA8FCF749FF1B4801680324E40217
:1033B000A143C21489180160FEF794FB1748016904
:1033C000A143016106200090FF20013002900120FE
:1033D00003901020049002200990002440050C90D6
:1033E0000A940B946846FEF763FD0F2014900320A7
:1033F0001590169417940121189414A8FEF746FC12
:1034000023200D90012000040E900F9410940DA81D
:10341000FEF78AFB1AB010BD007000404010024059
:1034200010480168821511430160C1680E4A1140BD
:10343000C16001680D4A1140016081684908490076
:10344000816001680122920491430160C168FD22FC
:1034500012049143C160002101610549C0038860E5
:1034600070470000001002400C40FF88F6FFF6FE97
:1034700000ED00E0F0B585B014216846FCF7DDFEF4
:103480001E4CA06B21040843A0631D480168042260
:1034900011430160FEF71EFBFEF714FB08200090AD
:1034A0001848052700263F070190694602963846CE
:1034B000FEF7E8F9002211460620FEF7FFFA062083
:1034C000FEF7F2FA362003256A4661C269460E48C5
:1034D000FEF7D8F980206A4661C269463846FEF791
:1034E000D1F9E06A40084000E062E06A02218843C6
:1034F000E06206A000F084FA05B0F0BD00100240C2
:1035000000700040000011100004005057696C6CFE
:1035100020746F20736C6565702E2E2E2E2E2E0D4E
:103520000A00000010B5818CC90707D001684A68FD
:1035300001235B049A43836A1A434A60818C89079A
:1035400007D501684A6801231B049A43C36A1A43DA
:103550004A60818C490707D501684A6801239B04AA
:103560009A43036B1A434A60818C090707D50168A7
:103570004A680123DB039A43436B1A434A60818CF8
:10358000C90607D50268916801231B039943836B21
:1035900019439160818C890607D501688A680123E7
:1035A0005B039A43C36B1A438A60818C490612D528
:1035B00003685A6801210905046C8A4322435A6052
:1035C000026C8A4207D10268516803235B05994364
:1035D000436C19435160818C090607D501684A681C
:1035E0000123DB04806C9A4302434A6010BD000053
:1035F000F8B500260446C667FEF706FA05462068B9
:103600000068124F000709D501212B460022490509
:103610002046009700F09AF900280DD12068006834
:1036200040070BD501212B46002289052046009733
:1036300000F08CF9002801D00320F8BD202060673D
:10364000A067603426740020F8BD0000FFFFFF0172
:1036500010B5806A0022014640314A834A82FFF752
:10366000FFF810BD70B5846A606FA56F2168896826
:1036700000260906002906DA212804D15220065323
:10368000204600F047F820688068400606D5222DC5
:1036900004D15A200653204600F02CF8E06F102188
:1036A0000843E0672046FFF7DBF870BD10B5014620
:1036B0000968806A0968890614D400225A210A52CE
:1036C00001680A68FF2301339A430A6001688A6827
:1036D000520852008A6001688A6840239A438A60CF
:1036E00020218167FFF758FA10BD10B5806AFFF7F7
:1036F00077FA10BD01680A68FF2321339A430A60F4
:1037000001688A68520852008A602021816700217E
:103710000166704701680A68C0239A430A60202145
:1037200041677047F8B504462669A268E7693243E5
:103730006669102000253E432368324378491E689D
:10374000784F3E4016431E6023685A6803263603AE
:10375000B243E66832435A602368A2698B4201D0C3
:10376000266A32439E680B273F02BE4316439E6083
:103770006D4E23686D4AB3420CD1D2689207920F06
:1037800006D0012A38D0022A34D0032A20D11EE0E4
:1037900001201DE0664EB3420AD1D2680C263240A9
:1037A00026D0042A28D0082A24D00C2A10D10EE0D2
:1037B0008B420DD1D66803229202164018D0012206
:1037C0009202B61A18D0B61A14D0964200D1082028
:1037D000564A0126403A574FF6038B4236D100280D
:1037E0000CD002280DD0042812D008281FD11CE0CC
:1037F0000020EDE70220EBE70420E9E7FEF7FCFA02
:1038000008E01068C00601D5384605E04A4803E0E4
:10381000FEF712FB002873D06268510051188142F4
:1038200005D81103814202D303E03046F4E70125B5
:1038300066E0010E06025008002330185941FCF7DB
:103840006DFC03210902411A3C4A55E0E169B1428D
:1038500032D1030000F00FF909070A0D062506060C
:10386000062B0600E3E7FEF7C7FA1CE0FEF7D4FAE2
:1038700019E010686168C00602D54808304A01E0C6
:10388000304A48088018FCF733FC80B201462E4AC3
:1038900010399142CBD8511C01400007400F08431A
:1038A0002CE0FEF7C9FA616840004A08EAE761685F
:1038B000012248081204E5E7030000F0DCF80907DC
:1038C0000A0D06260606062C0600B0E7FEF794FA57
:1038D0001DE0FEF7A1FA1AE010686168C00602D583
:1038E0004808C01902E014484A081018FCF700FC08
:1038F00080B20146144A1039914298D82168C860B4
:103900000020206660662846F8BDFEF795FA6168DB
:103910004A088018EAE7616848088019E6E700006D
:1039200000480040F369FFEF0038014040100240BA
:103930000044004000093D000024F400FFFC0F009B
:1039400000127A000048E801EFFF0000FFB581B0E7
:1039500017460E4604460A9D09E0681C07D0FEF78C
:1039600053F80499401AA8420CD8002D0AD02068B8
:10397000C1693046884318D00020B842EDD00020FD
:1039800005B0F0BD20680168FF22A13291430160BB
:103990002068816849084900816020206067A0672D
:1039A0000020603420740320EAE70120E5E70000EE
:1039B00070B5104D2868C1690F4CC943C90610D4B1
:1039C000102101622846FEF70EFF2868C169406A8F
:1039D0000A48006840688021081A60802846FFF77E
:1039E000DBF80448FEF73EFF8022A11D0148FFF7E7
:1039F00077F870BDF0020020E8000020700300207E
:103A00000FB410B503A9044B044A029800F00EF954
:103A100010BC08BC04B01847714300082C000020FB
:103A20000FB410B504A9074B02AA039800F0FEF8E2
:103A3000044602A9002000F095FC204610BC08BCFA
:103A400004B01847654300082021020C01D0102162
:103A50001046020A01D010460839020901D010466A
:103A6000091F820801D01046891E420801D0881E15
:103A70007047081A704730B47446641E2578641C79
:103A8000AB4200D21D46635D5B00E31830BC1847B3
:103A9000004870473000002002E008C8121F08C12B
:103AA000002AFAD170477047002001E001C1121FBF
:103AB000002AFBD170470000F0B51FB486B009980A
:103AC000089A030D0021024314D05148514A181896
:103AD000504305141198012810981AD0281A401C38
:103AE00000264D4F4D49009601910490002812DAAE
:103AF000444211E01198012449A3012801D11098F2
:103B0000C1430698119A84600360C26041600BB0A3
:103B1000F0BD4042E4E70446210500203F4A001C76
:103B200051410391029012E0E00707D032463B4634
:103B300001990098FCF756FC0191009032463B46F3
:103B400010461946FCF74EFC06460F466410002C42
:103B5000EAD10498039B0028029A0999089806DA8A
:103B6000FCF740FC019B009AFCF73CFC05E0FCF7ED
:103B7000A1FC019B009AFCF79DFC04460E46002226
:103B8000284BFCF777FF03D80020C043014607E02D
:103B90000022254B20463146FCF79AFEFCF74AFFEF
:103BA000102409E0002C0ADB0A220023FCF7B6FAF5
:103BB000079B30321A55641E02460A43F2D1112285
:103BC000641C079B121B1C19119B012B03D00123A2
:103BD00008430ED10AE0084304D0112010900020C1
:103BE000119077E71098151A6D1E0BE0109882421D
:103BF00002DD00236D1C03E0824201DA00236D1E0A
:103C0000002BEED0069811998260C16030C07EE72B
:103C100001FCFFFF104D0000000014400000F03FC9
:103C2000300000000000F0430000E03FFFB597B017
:103C30000646002518E2252877D100242746FD49AD
:103C4000049400E00443761C32780120203A90402E
:103C50000842F7D130782A280ED002223078014667
:103C60003039092916D804990A23594330394018A4
:103C70001443761C0490F1E7189802C80491189038
:103C8000002904DA01204003044348420490022042
:103C90000443761C30782E2814D104200443707815
:103CA000761C2A2809D11898761C80C8189009E03B
:103CB0000A214F43303FC719761C3078014630390E
:103CC0000929F5D930786C2810D006DC4C281AD098
:103CD00068280ED06A2817D104E0742813D07A28F7
:103CE00012D110E00120400504430CE00121090538
:103CF00001E0032109050C437178814203D10120C1
:103D000000052418761C761C3078119066280BD09C
:103D100013DC58287DD009DC00287BD04528F6D05C
:103D20004628F4D047281AD1A5E118E0632835D0F9
:103D3000642870D0652812D19DE170286CD008DC11
:103D40006728F1D069287BD06E280DD06F2806D166
:103D5000BAE073282ED0752871D0782859D01A9AD5
:103D6000199990476D1C7EE16002400F022809D02E
:103D700003280DD00428189801680DD00D60001D8F
:103D8000189070E11898EA1701680D604A60F6E72C
:103D9000189801680D80F2E70D70F0E718986A46F0
:103DA00001781172001D18900020507202A8009036
:103DB000012005E0189802C8189000200091C04327
:103DC00061070DD5002101E00199491C0191B9421B
:103DD00012DA8142F8DB009A515C0029F4D10BE041
:103DE000002101E00199491C01918142FADB019A0D
:103DF0000099895C0029F5D1019904981A9B471A0A
:103E000021463846199A00F097FA01994019451849
:103E10000BE04FE02CE113E04EE0009800990078B1
:103E2000491C00911A9A199990470198401E0190D7
:103E3000401CF2D1214638461A9B199A10E137E00E
:103E40000A200021009001916002410F022907D051
:103E5000189A01CA1892C2179446032908D00AE09A
:103E60001898C01DC108C90005C91891944607E0FB
:103E700000B2C2179446042902D140B2C1178C4641
:103E800000226146944506DA0A46002140429141EB
:103E90008C462D2102E0210504D52B216A461173A1
:103EA000012103E0E10701D02021F7E7029155E06D
:103EB0000A200AE0102008E01020009000210420D1
:103EC00004430191082703E008200021019100909C
:103ED0006002410F022907D0189A01CA18920022E5
:103EE0009446032908D008E01898C01DC108C900ED
:103EF00005C91891944603E080B2042900D1C0B2EC
:103F000000210291210729D51199702906D0009A24
:103F10001021019B4A401A4305D00EE040216A4619
:103F20001173012108E06146014306D030216A4641
:103F300011731199517302210291009A0821019B7A
:103F40004A401A430AD16146014301D1610705D5B0
:103F500030216A46117301217F1E0291119958295F
:103F600004D035A10E910DA90D910DE037A1F9E70F
:103F70006146019B009AFCF7D1F80E9B8C469B5C36
:103F80000D9A521E0D92137061460143F0D10D98A7
:103F900005A9081A20300190600703D5012000040C
:103FA000844300E001270198874201DD381A00E0D0
:103FB0000020019900904118029809180498401AAD
:103FC0000490E00306D421461A9B199A049800F045
:103FD000B3F94519002706E003A81A9AC05D19999C
:103FE00090476D1C7F1C02988742F5DBE0030CD5DF
:103FF00021461A9B199A049800F09EF9451904E08D
:104000001A9A3020199990476D1C0099481E00900B
:104010000029F5DC08E00D980D990078491C0D91F8
:104020001A9A199990476D1C0199481E0190002910
:10403000F1DC63E1092801003031323334353637A1
:1040400038396162636465660000000030313233E4
:104050003435363738394142434445460000000084
:1040600000F05AF94519761C3078002800D0E2E5B6
:1040700028461BB0F0BD600700D406271898C01D65
:10408000C108C90048680A680831C30FDB071891E6
:10409000190001D09CA108E0210501D59BA104E0F5
:1040A000E10701D09AA100E09AA1430011985B08B2
:1040B000109165280CD006DC452809D046281DD073
:1040C000472841D141E0662818D067283CD13CE020
:1040D0000021112F01DB112000E0781C01910090DC
:1040E00008A911A8FFF7E8FC139905910021119A7E
:1040F00015927F1C12980197009150E00120C00793
:1041000003900120019008A9009711A8FFF7D4FCA3
:10411000139A149905920022119B009212981593FC
:10412000059A0192002901D0104602E0791C40183E
:104130000190381A01D5019804E04042401E0090D9
:10414000781C0190C01B029043E0012F00DA012788
:104150000021112F01DD112000E03846019100906F
:1041600008A911A8FFF7A8FC13990591119A00213D
:10417000129815920091019721070CD40599B94224
:1041800001DB019900E00191012904DD159A491E26
:10419000515C302906D0B84201DA011D05DA01214F
:1041A000029115E00199491EEDE7002805DC009910
:1041B000411800910199091A03E0019A411C9142AA
:1041C00000DD01910099401A401C02900120C007B7
:1041D0000390200706D402990198814202DB002057
:1041E000C043029000206946C87707AF01210398B9
:1041F0000337C907884224D0022011902B20129047
:10420000039800280CDA404203902D20129007E01A
:104210000A210398FBF76CFF30317F1E0390397041
:104220001199481E11900029F2DC03980028EFD163
:10423000791E129808703078202108404530BF1E42
:10424000387006A8C01BC01D039010980078002885
:1042500000D00120019941180298C017091803984D
:1042600009180498401A401E0490E00306D4214621
:104270001A9B199A049800F05FF845191098007875
:10428000002803D01A9A199990476D1CE00324D591
:1042900021461A9B199A049800F04EF845191CE023
:1042A0000098002807DB00990598884203DD1598DF
:1042B000405C199901E0199930201A9A90470098AA
:1042C0006D1C401C00900298401E0290002804D1F2
:1042D0001A9A2E20199990476D1C0199481E019039
:1042E0000029DDDC05E038781A9A7F1C199990477F
:1042F0006D1C0399481E03900029F4DC21461A9B8B
:10430000199A0498ACE600002D0000002B00000074
:104310002000000000000000F8B5044600251E46FD
:104320001746880404D405E039462020B0476D1CA8
:10433000641EF9D52846F8BDFFB50446002581B0B6
:104340001E46C80301D5302700E02027880404D585
:1043500005E038460399B0476D1C641EF9D5284620
:1043600005B0F0BD0A68531C0B6010707047000068
:1043700013B5044B012269460348FEF732FC00984E
:104380001CBD0000FFFF000070020020FDF74AFB8B
:10439000FEF7FCFFFEF7E6FCFEF7D0FCFEF78AFC1A
:1043A000FEF774FDFEF78EFDFEF732FDFCF714FC00
:1043B000FCF74AFFC820FCF753FCC820FCF784FC3C
:1043C000FF20F530FCF724FCC82116A0FCF71EFDE9
:1043D000C82117A0FCF71AFDC82118A0FCF716FD8C
:1043E000C8211BA0FCF712FDC82122A0FCF70EFD7E
:1043F000C820FCF791FCFFF73DF801210846FDF7C6
:1044000079FBFEF733FF1EA0FFF7FAFA21490120DE
:104410000870214900208861FCF792FDFEF796FDA7
:10442000FAE7000041542B4D41433F0D0A000000C4
:1044300041542B4144533F0D0A00000041542B418D
:1044400044533D312C312C353030300D0A00000002
:1044500041542B534552564943453D302C46464620
:10446000302C464646312C464646322C464646338C
:104470000D0A000041542B57444F473D300D0A00B0
:10448000576561726B55502D2D2D2D2D2D3E0D0A2A
:1044900000000000000000203400002030B58BB088
:1044A0002C216846FBF7C9FE1D490022084614303E
:1044B000FDF7F4FF1A4800221A491430FDF7CCFF2B
:1044C000184C7D21E07809014118A378627816A084
:1044D000FFF796FA124D19A0AB786A782978FFF7A2
:1044E0008FFA2C216846FBF7A8FEE078643005902F
:1044F0006078401E0490A0780390287808380290D5
:1045000068780190A87800906846FBF737FE04466B
:1045100001460FA0FFF774FA20460BB030BD000033
:10452000B000002018000020253032642F253032E2
:10453000642F253032640D0A0000000025303264FB
:104540003A253032643A253032640D0A000000000A
:104550002A5254432A2A2A2A2A2A2A2A2A256C64D9
:104560000000000000000000000000000102030441
:1045700006070809030406080C1018203000000084
:1045800000010203041F1C1F1E1F1E1F1F1E1F1ED3
:104590001F1F1D1F1E1F1E1F1F1E1F1E1F0040400E
:1045A0004040404040404041414141414040404006
:1045B0004040404040404040404040404040050274
:1045C000020202020202020202020202020220208F
:1045D000202020202020202002020202020202903D
:1045E000909090909010101010101010101010104B
:1045F0001010101010101010100202020202028897
:1046000088888888880808080808080808080808AA
:10461000080808080808080808020202024000000A
:104620009E450008444600080000002034000000B9
:10463000983A00087846000834000020B40B0000C7
:10464000A83A000800000000000000000000000080
:10465000000000000000000000000000000000005A
:104660000100000004000000000000000000200025
:08467000000000000000000042
:04000005080000C12E
:00000001FF
