Component: ARM Compiler 5.06 update 6 (build 750) Tool: armlink [4d35ed]

==============================================================================

Section Cross References

    startup_stm32l051xx.o(RESET) refers to startup_stm32l051xx.o(STACK) for __initial_sp
    startup_stm32l051xx.o(RESET) refers to startup_stm32l051xx.o(.text) for Reset_Handler
    startup_stm32l051xx.o(RESET) refers to stm32l0xx_it.o(i.NMI_Handler) for NMI_Handler
    startup_stm32l051xx.o(RESET) refers to stm32l0xx_it.o(i.HardFault_Handler) for HardFault_Handler
    startup_stm32l051xx.o(RESET) refers to stm32l0xx_it.o(i.SVC_Handler) for SVC_Handler
    startup_stm32l051xx.o(RESET) refers to stm32l0xx_it.o(i.PendSV_Handler) for PendSV_Handler
    startup_stm32l051xx.o(RESET) refers to stm32l0xx_it.o(i.SysTick_Handler) for SysTick_Handler
    startup_stm32l051xx.o(RESET) refers to stm32l0xx_it.o(i.EXTI2_3_IRQHandler) for EXTI2_3_IRQHandler
    startup_stm32l051xx.o(RESET) refers to stm32l0xx_it.o(i.DMA1_Channel4_5_6_7_IRQHandler) for DMA1_Channel4_5_6_7_IRQHandler
    startup_stm32l051xx.o(RESET) refers to stm32l0xx_it.o(i.USART2_IRQHandler) for USART2_IRQHandler
    startup_stm32l051xx.o(.text) refers to system_stm32l0xx.o(i.SystemInit) for SystemInit
    startup_stm32l051xx.o(.text) refers to entry.o(.ARM.Collect$$$$00000000) for __main
    wakeup.o(i.RTC_Time_Config) refers to printfa.o(i.__0printf) for __2printf
    wakeup.o(i.RTC_Time_Config) refers to stm32l0xx_hal_rtc_ex.o(i.HAL_RTCEx_DeactivateWakeUpTimer) for HAL_RTCEx_DeactivateWakeUpTimer
    wakeup.o(i.RTC_Time_Config) refers to main.o(i.Error_Handler) for Error_Handler
    wakeup.o(i.RTC_Time_Config) refers to stm32l0xx_hal_rtc_ex.o(i.HAL_RTCEx_SetWakeUpTimer_IT) for HAL_RTCEx_SetWakeUpTimer_IT
    wakeup.o(i.RTC_Time_Config) refers to rtc.o(.bss) for hrtc
    wakeup.o(i.SystemClockConfig_STOP) refers to memseta.o(.text) for __aeabi_memclr4
==============================================================================

Removing Unused input sections from the image.

    Removing startup_stm32l051xx.o(HEAP), (1024 bytes).
    Removing wakeup.o(.rev16_text), (4 bytes).
    Removing wakeup.o(.revsh_text), (4 bytes).
    Removing wakeup.o(.data), (1 bytes).
    Removing wakeup.o(.data), (1 bytes).
    Removing wakeup.o(.data), (2 bytes).
    Removing my_string.o(.rev16_text), (4 bytes).
    Removing my_string.o(.revsh_text), (4 bytes).
    Removing my_string.o(i.Find_AttributeStringAll), (204 bytes).
    Removing my_string.o(i.smart_array), (44 bytes).
    Removing motor.o(.rev16_text), (4 bytes).
    Removing motor.o(.revsh_text), (4 bytes).
    Removing motor.o(i.Motor_Sleep), (40 bytes).
    Removing bg22.o(.rev16_text), (4 bytes).
    Removing bg22.o(.revsh_text), (4 bytes).
    Removing main.o(.rev16_text), (4 bytes).
    Removing main.o(.revsh_text), (4 bytes).
    Removing gpio.o(.rev16_text), (4 bytes).
==============================================================================

Image Symbol Table

    Local Symbols

    Symbol Name                              Value     Ov Type        Size  Object(Section)

    ../Core/Src/adc.c                        0x00000000   Number         0  adc.o ABSOLUTE
    ../Core/Src/dma.c                        0x00000000   Number         0  dma.o ABSOLUTE
    ../Core/Src/gpio.c                       0x00000000   Number         0  gpio.o ABSOLUTE
    ../Core/Src/main.c                       0x00000000   Number         0  main.o ABSOLUTE
    ../Core/Src/rtc.c                        0x00000000   Number         0  rtc.o ABSOLUTE
    ../Core/Src/stm32l0xx_hal_msp.c          0x00000000   Number         0  stm32l0xx_hal_msp.o ABSOLUTE
    ../Core/Src/stm32l0xx_it.c               0x00000000   Number         0  stm32l0xx_it.o ABSOLUTE
    ../Core/Src/system_stm32l0xx.c           0x00000000   Number         0  system_stm32l0xx.o ABSOLUTE
    ../Core/Src/usart.c                      0x00000000   Number         0  usart.o ABSOLUTE
    ../Drivers/STM32L0xx_HAL_Driver/Src/stm32l0xx_hal.c 0x00000000   Number         0  stm32l0xx_hal.o ABSOLUTE
    ../Drivers/STM32L0xx_HAL_Driver/Src/stm32l0xx_hal_adc.c 0x00000000   Number         0  stm32l0xx_hal_adc.o ABSOLUTE
    ../Drivers/STM32L0xx_HAL_Driver/Src/stm32l0xx_hal_adc_ex.c 0x00000000   Number         0  stm32l0xx_hal_adc_ex.o ABSOLUTE
    ../Drivers/STM32L0xx_HAL_Driver/Src/stm32l0xx_hal_cortex.c 0x00000000   Number         0  stm32l0xx_hal_cortex.o ABSOLUTE
    ../Drivers/STM32L0xx_HAL_Driver/Src/stm32l0xx_hal_dma.c 0x00000000   Number         0  stm32l0xx_hal_dma.o ABSOLUTE
    ../Drivers/STM32L0xx_HAL_Driver/Src/stm32l0xx_hal_flash.c 0x00000000   Number         0  stm32l0xx_hal_flash.o ABSOLUTE
    ../Drivers/STM32L0xx_HAL_Driver/Src/stm32l0xx_hal_flash_ex.c 0x00000000   Number         0  stm32l0xx_hal_flash_ex.o ABSOLUTE
    ../Drivers/STM32L0xx_HAL_Driver/Src/stm32l0xx_hal_flash_ramfunc.c 0x00000000   Number         0  stm32l0xx_hal_flash_ramfunc.o ABSOLUTE
    ../Drivers/STM32L0xx_HAL_Driver/Src/stm32l0xx_hal_gpio.c 0x00000000   Number         0  stm32l0xx_hal_gpio.o ABSOLUTE
    ../Drivers/STM32L0xx_HAL_Driver/Src/stm32l0xx_hal_i2c.c 0x00000000   Number         0  stm32l0xx_hal_i2c.o ABSOLUTE
    ../Drivers/STM32L0xx_HAL_Driver/Src/stm32l0xx_hal_i2c_ex.c 0x00000000   Number         0  stm32l0xx_hal_i2c_ex.o ABSOLUTE
    ../Drivers/STM32L0xx_HAL_Driver/Src/stm32l0xx_hal_pwr.c 0x00000000   Number         0  stm32l0xx_hal_pwr.o ABSOLUTE
    ../Drivers/STM32L0xx_HAL_Driver/Src/stm32l0xx_hal_pwr_ex.c 0x00000000   Number         0  stm32l0xx_hal_pwr_ex.o ABSOLUTE
    ../Drivers/STM32L0xx_HAL_Driver/Src/stm32l0xx_hal_rcc.c 0x00000000   Number         0  stm32l0xx_hal_rcc.o ABSOLUTE
    ../Drivers/STM32L0xx_HAL_Driver/Src/stm32l0xx_hal_rcc_ex.c 0x00000000   Number         0  stm32l0xx_hal_rcc_ex.o ABSOLUTE
    ../Drivers/STM32L0xx_HAL_Driver/Src/stm32l0xx_hal_rtc.c 0x00000000   Number         0  stm32l0xx_hal_rtc.o ABSOLUTE
    ../Drivers/STM32L0xx_HAL_Driver/Src/stm32l0xx_hal_rtc_ex.c 0x00000000   Number         0  stm32l0xx_hal_rtc_ex.o ABSOLUTE
    ../Drivers/STM32L0xx_HAL_Driver/Src/stm32l0xx_hal_tim.c 0x00000000   Number         0  stm32l0xx_hal_tim.o ABSOLUTE
    ../Drivers/STM32L0xx_HAL_Driver/Src/stm32l0xx_hal_tim_ex.c 0x00000000   Number         0  stm32l0xx_hal_tim_ex.o ABSOLUTE
    ../Drivers/STM32L0xx_HAL_Driver/Src/stm32l0xx_hal_uart.c 0x00000000   Number         0  stm32l0xx_hal_uart.o ABSOLUTE
    ../Drivers/STM32L0xx_HAL_Driver/Src/stm32l0xx_hal_uart_ex.c 0x00000000   Number         0  stm32l0xx_hal_uart_ex.o ABSOLUTE
    ../clib/microlib/ctype/ctype.c           0x00000000   Number         0  isdigit_o.o ABSOLUTE
    ../clib/microlib/ctype/ctype.c           0x00000000   Number         0  isblank_o.o ABSOLUTE
    ../clib/microlib/ctype/ctype.c           0x00000000   Number         0  isalpha_o.o ABSOLUTE
    ../clib/microlib/ctype/ctype.c           0x00000000   Number         0  isalnum_o.o ABSOLUTE
    ../clib/microlib/ctype/ctype.c           0x00000000   Number         0  ctype_o.o ABSOLUTE
    ../clib/microlib/ctype/ctype.c           0x00000000   Number         0  iscntrl_o.o ABSOLUTE
    ../clib/microlib/ctype/ctype.c           0x00000000   Number         0  isxdigit_o.o ABSOLUTE
    ../clib/microlib/ctype/ctype.c           0x00000000   Number         0  isupper_o.o ABSOLUTE
    ../clib/microlib/ctype/ctype.c           0x00000000   Number         0  isspace_o.o ABSOLUTE
    ../clib/microlib/ctype/ctype.c           0x00000000   Number         0  ispunct_o.o ABSOLUTE
    ../clib/microlib/ctype/ctype.c           0x00000000   Number         0  isprint_o.o ABSOLUTE
    ../clib/microlib/ctype/ctype.c           0x00000000   Number         0  islower_o.o ABSOLUTE
    ../clib/microlib/ctype/ctype.c           0x00000000   Number         0  isgraph_o.o ABSOLUTE
    ../clib/microlib/division.c              0x00000000   Number         0  uldiv.o ABSOLUTE
    ../clib/microlib/division.c              0x00000000   Number         0  uidiv.o ABSOLUTE
    ../clib/microlib/division.c              0x00000000   Number         0  idiv.o ABSOLUTE
    ../clib/microlib/errno.c                 0x00000000   Number         0  errno.o ABSOLUTE
    ../clib/microlib/init/entry.s            0x00000000   Number         0  entry7b.o ABSOLUTE
    ../clib/microlib/init/entry.s            0x00000000   Number         0  entry9b.o ABSOLUTE
    ../clib/microlib/init/entry.s            0x00000000   Number         0  entry11b.o ABSOLUTE
    ../clib/microlib/init/entry.s            0x00000000   Number         0  entry2.o ABSOLUTE
    ../clib/microlib/init/entry.s            0x00000000   Number         0  entry5.o ABSOLUTE
    ../clib/microlib/init/entry.s            0x00000000   Number         0  entry7a.o ABSOLUTE
    ../clib/microlib/init/entry.s            0x00000000   Number         0  entry10a.o ABSOLUTE
    ../clib/microlib/init/entry.s            0x00000000   Number         0  entry11a.o ABSOLUTE
    ../clib/microlib/init/entry.s            0x00000000   Number         0  entry8a.o ABSOLUTE
    ../clib/microlib/init/entry.s            0x00000000   Number         0  entry8b.o ABSOLUTE
    ../clib/microlib/init/entry.s            0x00000000   Number         0  entry.o ABSOLUTE
    ../clib/microlib/init/entry.s            0x00000000   Number         0  entry10b.o ABSOLUTE
    ../clib/microlib/init/entry.s            0x00000000   Number         0  entry9a.o ABSOLUTE
    ../clib/microlib/longlong.c              0x00000000   Number         0  llshl.o ABSOLUTE
    ../clib/microlib/longlong.c              0x00000000   Number         0  llushr.o ABSOLUTE
    ../clib/microlib/longlong.c              0x00000000   Number         0  llsshr.o ABSOLUTE
    ../clib/microlib/printf/printf.c         0x00000000   Number         0  printf6.o ABSOLUTE
    ../clib/microlib/printf/printf.c         0x00000000   Number         0  printf4.o ABSOLUTE
    ../clib/microlib/printf/printf.c         0x00000000   Number         0  printfb.o ABSOLUTE
    ../clib/microlib/printf/printf.c         0x00000000   Number         0  printf0.o ABSOLUTE
    ../clib/microlib/printf/printf.c         0x00000000   Number         0  printf5.o ABSOLUTE
    ../clib/microlib/printf/printf.c         0x00000000   Number         0  printf7.o ABSOLUTE
    ../clib/microlib/printf/printf.c         0x00000000   Number         0  printf8.o ABSOLUTE
    ../clib/microlib/printf/printf.c         0x00000000   Number         0  printf1.o ABSOLUTE
    ../clib/microlib/printf/printf.c         0x00000000   Number         0  printf2.o ABSOLUTE
    ../clib/microlib/printf/printf.c         0x00000000   Number         0  printfa.o ABSOLUTE
    ../clib/microlib/printf/printf.c         0x00000000   Number         0  printf3.o ABSOLUTE
    ../clib/microlib/printf/stubs.s          0x00000000   Number         0  stubs.o ABSOLUTE
    ../clib/microlib/stdio/streams.c         0x00000000   Number         0  stdout.o ABSOLUTE
    ../clib/microlib/string/memcpy.c         0x00000000   Number         0  memcpyb.o ABSOLUTE
    ../clib/microlib/string/memcpy.c         0x00000000   Number         0  memcpya.o ABSOLUTE
    ../clib/microlib/string/memset.c         0x00000000   Number         0  memseta.o ABSOLUTE
    ../clib/microlib/string/strcmp.c         0x00000000   Number         0  strcmp.o ABSOLUTE
    ../clib/microlib/string/strcpy.c         0x00000000   Number         0  strcpy.o ABSOLUTE
    ../clib/microlib/string/strlen.c         0x00000000   Number         0  strlen.o ABSOLUTE
    ../clib/microlib/string/strstr.c         0x00000000   Number         0  strstr.o ABSOLUTE
    ../clib/microlib/string/strtok.c         0x00000000   Number         0  strtok.o ABSOLUTE
    ../clib/microlib/string/strtok.c         0x00000000   Number         0  strtok_r.o ABSOLUTE
    ../clib/microlib/stubs.s                 0x00000000   Number         0  iusefp.o ABSOLUTE
    ../clib/microlib/time/localtime.c        0x00000000   Number         0  localtime.o ABSOLUTE
    ../clib/microlib/time/localtime.c        0x00000000   Number         0  localtime_w.o ABSOLUTE
    ../clib/microlib/time/localtime.c        0x00000000   Number         0  localtime_i.o ABSOLUTE
    ../clib/microlib/time/mktime.c           0x00000000   Number         0  mktime.o ABSOLUTE
    ../clib/scanf.c                          0x00000000   Number         0  strtol.o ABSOLUTE
    ../clib/scanf.c                          0x00000000   Number         0  _strtoul.o ABSOLUTE
    ../clib/scanf.c                          0x00000000   Number         0  _chval.o ABSOLUTE
    ../clib/scanf.c                          0x00000000   Number         0  atoi.o ABSOLUTE
    ../fplib/microlib/d2f.c                  0x00000000   Number         0  d2f.o ABSOLUTE
    ../fplib/microlib/f2d.c                  0x00000000   Number         0  f2d.o ABSOLUTE
    ../fplib/microlib/fpadd.c                0x00000000   Number         0  dadd.o ABSOLUTE
    ../fplib/microlib/fpadd.c                0x00000000   Number         0  fadd.o ABSOLUTE
    ../fplib/microlib/fpdiv.c                0x00000000   Number         0  ddiv.o ABSOLUTE
    ../fplib/microlib/fpepilogue.c           0x00000000   Number         0  depilogue.o ABSOLUTE
    ../fplib/microlib/fpepilogue.c           0x00000000   Number         0  fepilogue.o ABSOLUTE
    ../fplib/microlib/fpfix.c                0x00000000   Number         0  dfixul.o ABSOLUTE
    ../fplib/microlib/fpflt.c                0x00000000   Number         0  dfltui.o ABSOLUTE
    ../fplib/microlib/fpflt.c                0x00000000   Number         0  ffltui.o ABSOLUTE
    ../fplib/microlib/fpmul.c                0x00000000   Number         0  dmul.o ABSOLUTE
    ../fplib/microlib/fpmul.c                0x00000000   Number         0  fmul.o ABSOLUTE
    ../fplib/microlib/fpscalb.c              0x00000000   Number         0  fscalb.o ABSOLUTE
    ..\Core\Src\adc.c                        0x00000000   Number         0  adc.o ABSOLUTE
    ..\Core\Src\dma.c                        0x00000000   Number         0  dma.o ABSOLUTE
    ..\Core\Src\gpio.c                       0x00000000   Number         0  gpio.o ABSOLUTE
    ..\Core\Src\main.c                       0x00000000   Number         0  main.o ABSOLUTE
    ..\Core\Src\rtc.c                        0x00000000   Number         0  rtc.o ABSOLUTE
    ..\Core\Src\stm32l0xx_hal_msp.c          0x00000000   Number         0  stm32l0xx_hal_msp.o ABSOLUTE
    ..\Core\Src\stm32l0xx_it.c               0x00000000   Number         0  stm32l0xx_it.o ABSOLUTE
    ..\Core\Src\system_stm32l0xx.c           0x00000000   Number         0  system_stm32l0xx.o ABSOLUTE
    ..\Core\Src\usart.c                      0x00000000   Number         0  usart.o ABSOLUTE
    ..\Drivers\BLE\BG22.c                    0x00000000   Number         0  bg22.o ABSOLUTE
    ..\Drivers\Motor\motor.c                 0x00000000   Number         0  motor.o ABSOLUTE
    ..\Drivers\My_string\my_string.c         0x00000000   Number         0  my_string.o ABSOLUTE
    ..\Drivers\STM32L0xx_HAL_Driver\Src\stm32l0xx_hal.c 0x00000000   Number         0  stm32l0xx_hal.o ABSOLUTE
    ..\Drivers\STM32L0xx_HAL_Driver\Src\stm32l0xx_hal_adc.c 0x00000000   Number         0  stm32l0xx_hal_adc.o ABSOLUTE
    ..\Drivers\STM32L0xx_HAL_Driver\Src\stm32l0xx_hal_adc_ex.c 0x00000000   Number         0  stm32l0xx_hal_adc_ex.o ABSOLUTE
    ..\Drivers\STM32L0xx_HAL_Driver\Src\stm32l0xx_hal_cortex.c 0x00000000   Number         0  stm32l0xx_hal_cortex.o ABSOLUTE
    ..\Drivers\STM32L0xx_HAL_Driver\Src\stm32l0xx_hal_dma.c 0x00000000   Number         0  stm32l0xx_hal_dma.o ABSOLUTE
    ..\Drivers\STM32L0xx_HAL_Driver\Src\stm32l0xx_hal_flash.c 0x00000000   Number         0  stm32l0xx_hal_flash.o ABSOLUTE
    ..\Drivers\STM32L0xx_HAL_Driver\Src\stm32l0xx_hal_flash_ex.c 0x00000000   Number         0  stm32l0xx_hal_flash_ex.o ABSOLUTE
    ..\Drivers\STM32L0xx_HAL_Driver\Src\stm32l0xx_hal_flash_ramfunc.c 0x00000000   Number         0  stm32l0xx_hal_flash_ramfunc.o ABSOLUTE
    ..\Drivers\STM32L0xx_HAL_Driver\Src\stm32l0xx_hal_gpio.c 0x00000000   Number         0  stm32l0xx_hal_gpio.o ABSOLUTE
    ..\Drivers\STM32L0xx_HAL_Driver\Src\stm32l0xx_hal_i2c.c 0x00000000   Number         0  stm32l0xx_hal_i2c.o ABSOLUTE
    ..\Drivers\STM32L0xx_HAL_Driver\Src\stm32l0xx_hal_i2c_ex.c 0x00000000   Number         0  stm32l0xx_hal_i2c_ex.o ABSOLUTE
    ..\Drivers\STM32L0xx_HAL_Driver\Src\stm32l0xx_hal_pwr.c 0x00000000   Number         0  stm32l0xx_hal_pwr.o ABSOLUTE
    ..\Drivers\STM32L0xx_HAL_Driver\Src\stm32l0xx_hal_pwr_ex.c 0x00000000   Number         0  stm32l0xx_hal_pwr_ex.o ABSOLUTE
    ..\Drivers\STM32L0xx_HAL_Driver\Src\stm32l0xx_hal_rcc.c 0x00000000   Number         0  stm32l0xx_hal_rcc.o ABSOLUTE
    ..\Drivers\STM32L0xx_HAL_Driver\Src\stm32l0xx_hal_rcc_ex.c 0x00000000   Number         0  stm32l0xx_hal_rcc_ex.o ABSOLUTE
    ..\Drivers\STM32L0xx_HAL_Driver\Src\stm32l0xx_hal_rtc.c 0x00000000   Number         0  stm32l0xx_hal_rtc.o ABSOLUTE
    ..\Drivers\STM32L0xx_HAL_Driver\Src\stm32l0xx_hal_rtc_ex.c 0x00000000   Number         0  stm32l0xx_hal_rtc_ex.o ABSOLUTE
    ..\Drivers\STM32L0xx_HAL_Driver\Src\stm32l0xx_hal_tim.c 0x00000000   Number         0  stm32l0xx_hal_tim.o ABSOLUTE
    ..\Drivers\STM32L0xx_HAL_Driver\Src\stm32l0xx_hal_tim_ex.c 0x00000000   Number         0  stm32l0xx_hal_tim_ex.o ABSOLUTE
    ..\Drivers\STM32L0xx_HAL_Driver\Src\stm32l0xx_hal_uart.c 0x00000000   Number         0  stm32l0xx_hal_uart.o ABSOLUTE
    ..\Drivers\STM32L0xx_HAL_Driver\Src\stm32l0xx_hal_uart_ex.c 0x00000000   Number         0  stm32l0xx_hal_uart_ex.o ABSOLUTE
    ..\Drivers\wakeup\wakeup.c               0x00000000   Number         0  wakeup.o ABSOLUTE
    ..\\Drivers\\BLE\\BG22.c                 0x00000000   Number         0  bg22.o ABSOLUTE
    ..\\Drivers\\Motor\\motor.c              0x00000000   Number         0  motor.o ABSOLUTE
    ..\\Drivers\\My_string\\my_string.c      0x00000000   Number         0  my_string.o ABSOLUTE
    ..\\Drivers\\wakeup\\wakeup.c            0x00000000   Number         0  wakeup.o ABSOLUTE
    cdrcmple.s                               0x00000000   Number         0  cdrcmple.o ABSOLUTE
    dc.s                                     0x00000000   Number         0  dc.o ABSOLUTE
    handlers.s                               0x00000000   Number         0  handlers.o ABSOLUTE
    init.s                                   0x00000000   Number         0  init.o ABSOLUTE
    startup_stm32l051xx.s                    0x00000000   Number         0  startup_stm32l051xx.o ABSOLUTE
    RESET                                    0x08000000   Section      192  startup_stm32l051xx.o(RESET)
    .ARM.Collect$$$$00000000                 0x080000c0   Section        0  entry.o(.ARM.Collect$$$$00000000)
    .ARM.Collect$$$$00000001                 0x080000c0   Section        4  entry2.o(.ARM.Collect$$$$00000001)
    .ARM.Collect$$$$00000004                 0x080000c4   Section        4  entry5.o(.ARM.Collect$$$$00000004)
    .ARM.Collect$$$$00000008                 0x080000c8   Section        0  entry7b.o(.ARM.Collect$$$$00000008)
    .ARM.Collect$$$$0000000A                 0x080000c8   Section        0  entry8b.o(.ARM.Collect$$$$0000000A)
    .ARM.Collect$$$$0000000B                 0x080000c8   Section        8  entry9a.o(.ARM.Collect$$$$0000000B)
    .ARM.Collect$$$$0000000D                 0x080000d0   Section        0  entry10a.o(.ARM.Collect$$$$0000000D)
    .ARM.Collect$$$$0000000F                 0x080000d0   Section        0  entry11a.o(.ARM.Collect$$$$0000000F)
    .ARM.Collect$$$$00002712                 0x080000d0   Section        4  entry2.o(.ARM.Collect$$$$00002712)
    __lit__00000000                          0x080000d0   Data           4  entry2.o(.ARM.Collect$$$$00002712)
    .text                                    0x080000d4   Section       28  startup_stm32l051xx.o(.text)
    .text                                    0x080000f0   Section        0  uidiv.o(.text)
    .text                                    0x0800011c   Section        0  uldiv.o(.text)
    .text                                    0x0800017c   Section        0  mktime.o(.text)
    .text                                    0x08000208   Section        0  memcpya.o(.text)
    .text                                    0x0800022c   Section        0  memseta.o(.text)
    .text                                    0x08000250   Section        0  strstr.o(.text)
    .text                                    0x08000278   Section        0  strlen.o(.text)
    .text                                    0x08000286   Section        0  atoi.o(.text)
    .text                                    0x080002a0   Section        0  fadd.o(.text)
    .text                                    0x08000352   Section        0  fmul.o(.text)
    .text                                    0x080003cc   Section        0  fscalb.o(.text)
    .text                                    0x080003e4   Section        0  dmul.o(.text)
    .text                                    0x080004b4   Section        0  ddiv.o(.text)
    .text                                    0x080005a4   Section        0  ffltui.o(.text)
    .text                                    0x080005b4   Section        0  dfltui.o(.text)
    .text                                    0x080005d0   Section        0  f2d.o(.text)
    .text                                    0x080005f8   Section        0  d2f.o(.text)
    .text                                    0x08000630   Section        0  idiv.o(.text)
    .text                                    0x08000658   Section        0  llshl.o(.text)
    .text                                    0x08000678   Section        0  llushr.o(.text)
    .text                                    0x0800069c   Section        0  localtime_w.o(.text)
    .text                                    0x080006ac   Section        0  localtime_i.o(.text)
    .text                                    0x08000720   Section        0  strtol.o(.text)
    .text                                    0x08000790   Section        0  iusefp.o(.text)
    .text                                    0x08000790   Section        0  fepilogue.o(.text)
    .text                                    0x08000812   Section        0  depilogue.o(.text)
    .text                                    0x080008d0   Section        0  dadd.o(.text)
    .text                                    0x08000a34   Section        0  dfixul.o(.text)
    .text                                    0x08000a74   Section       40  cdrcmple.o(.text)
    .text                                    0x08000a9c   Section       36  init.o(.text)
    .text                                    0x08000ac0   Section        0  llsshr.o(.text)
    .text                                    0x08000ae8   Section        0  ctype_o.o(.text)
    .text                                    0x08000af0   Section        0  _strtoul.o(.text)
    .text                                    0x08000b96   Section        0  _chval.o(.text)
    i.ADC_DelayMicroSecond                   0x08000bb4   Section        0  stm32l0xx_hal_adc.o(i.ADC_DelayMicroSecond)
    ADC_DelayMicroSecond                     0x08000bb5   Thumb Code    28  stm32l0xx_hal_adc.o(i.ADC_DelayMicroSecond)
    i.Adc_Calibration                        0x08000bd8   Section        0  motor.o(i.Adc_Calibration)
    i.BLE_Chack_Name                         0x08000c10   Section        0  bg22.o(i.BLE_Chack_Name)
    i.BLE_Enable_AT                          0x08000c60   Section        0  bg22.o(i.BLE_Enable_AT)
    i.BLE_Enable_ATE0                        0x08000cc8   Section        0  bg22.o(i.BLE_Enable_ATE0)
    i.BLE_Enter_Sleep                        0x08000d18   Section        0  bg22.o(i.BLE_Enter_Sleep)
    i.BLE_Exit_AT                            0x08000d90   Section        0  bg22.o(i.BLE_Exit_AT)
    i.BLE_Send_test                          0x08000e0c   Section        0  bg22.o(i.BLE_Send_test)
    i.BLE_report                             0x08000e94   Section        0  motor.o(i.BLE_report)
    i.BLE_uart_task                          0x08000f40   Section        0  bg22.o(i.BLE_uart_task)
    i.Calibration_Times                      0x08001130   Section        0  my_string.o(i.Calibration_Times)
    i.DMA1_Channel4_5_6_7_IRQHandler         0x08001200   Section        0  stm32l0xx_it.o(i.DMA1_Channel4_5_6_7_IRQHandler)
    i.DMA_SetConfig                          0x08001210   Section        0  stm32l0xx_hal_dma.o(i.DMA_SetConfig)
    DMA_SetConfig                            0x08001211   Thumb Code    44  stm32l0xx_hal_dma.o(i.DMA_SetConfig)
    i.EXTI2_3_IRQHandler                     0x0800123c   Section        0  stm32l0xx_it.o(i.EXTI2_3_IRQHandler)
    i.EnableUsart_IT                         0x08001248   Section        0  usart.o(i.EnableUsart_IT)
    i.Error_Handler                          0x08001278   Section        0  main.o(i.Error_Handler)
    i.Find_string                            0x0800127c   Section        0  my_string.o(i.Find_string)
    i.Get_bat_val                            0x080012dc   Section        0  motor.o(i.Get_bat_val)
    i.HAL_ADC_ConfigChannel                  0x08001350   Section        0  stm32l0xx_hal_adc.o(i.HAL_ADC_ConfigChannel)
    i.HAL_ADC_Init                           0x080013e4   Section        0  stm32l0xx_hal_adc.o(i.HAL_ADC_Init)
    i.HAL_ADC_MspInit                        0x080015ac   Section        0  adc.o(i.HAL_ADC_MspInit)
    i.HAL_DMA_Abort                          0x080015fc   Section        0  stm32l0xx_hal_dma.o(i.HAL_DMA_Abort)
    i.HAL_DMA_Abort_IT                       0x08001640   Section        0  stm32l0xx_hal_dma.o(i.HAL_DMA_Abort_IT)
    i.HAL_DMA_GetError                       0x0800168c   Section        0  stm32l0xx_hal_dma.o(i.HAL_DMA_GetError)
    i.HAL_DMA_IRQHandler                     0x08001690   Section        0  stm32l0xx_hal_dma.o(i.HAL_DMA_IRQHandler)
    i.HAL_DMA_Init                           0x08001738   Section        0  stm32l0xx_hal_dma.o(i.HAL_DMA_Init)
    i.HAL_DMA_Start_IT                       0x080017c8   Section        0  stm32l0xx_hal_dma.o(i.HAL_DMA_Start_IT)
    i.HAL_Delay                              0x08001830   Section        0  stm32l0xx_hal.o(i.HAL_Delay)
    i.HAL_GPIO_EXTI_Callback                 0x08001854   Section        0  usart.o(i.HAL_GPIO_EXTI_Callback)
    i.HAL_GPIO_EXTI_IRQHandler               0x0800186c   Section        0  stm32l0xx_hal_gpio.o(i.HAL_GPIO_EXTI_IRQHandler)
    i.HAL_GPIO_Init                          0x08001884   Section        0  stm32l0xx_hal_gpio.o(i.HAL_GPIO_Init)
    i.HAL_GPIO_WritePin                      0x080019fc   Section        0  stm32l0xx_hal_gpio.o(i.HAL_GPIO_WritePin)
    i.HAL_GetTick                            0x08001a08   Section        0  stm32l0xx_hal.o(i.HAL_GetTick)
    i.HAL_IncTick                            0x08001a14   Section        0  stm32l0xx_hal.o(i.HAL_IncTick)
    i.HAL_Init                               0x08001a24   Section        0  stm32l0xx_hal.o(i.HAL_Init)
    i.HAL_InitTick                           0x08001a4c   Section        0  stm32l0xx_hal.o(i.HAL_InitTick)
    i.HAL_MspInit                            0x08001a90   Section        0  stm32l0xx_hal_msp.o(i.HAL_MspInit)
    i.HAL_NVIC_EnableIRQ                     0x08001aa8   Section        0  stm32l0xx_hal_cortex.o(i.HAL_NVIC_EnableIRQ)
    i.HAL_NVIC_SetPriority                   0x08001abc   Section        0  stm32l0xx_hal_cortex.o(i.HAL_NVIC_SetPriority)
    i.HAL_PWREx_EnableFastWakeUp             0x08001ac4   Section        0  stm32l0xx_hal_pwr_ex.o(i.HAL_PWREx_EnableFastWakeUp)
    i.HAL_PWREx_EnableUltraLowPower          0x08001ad4   Section        0  stm32l0xx_hal_pwr_ex.o(i.HAL_PWREx_EnableUltraLowPower)
    i.HAL_PWR_EnableBkUpAccess               0x08001ae4   Section        0  stm32l0xx_hal_pwr.o(i.HAL_PWR_EnableBkUpAccess)
    i.HAL_PWR_EnterSTOPMode                  0x08001af4   Section        0  stm32l0xx_hal_pwr.o(i.HAL_PWR_EnterSTOPMode)
    i.HAL_RCCEx_PeriphCLKConfig              0x08001b28   Section        0  stm32l0xx_hal_rcc_ex.o(i.HAL_RCCEx_PeriphCLKConfig)
    i.HAL_RCC_ClockConfig                    0x08001c8c   Section        0  stm32l0xx_hal_rcc.o(i.HAL_RCC_ClockConfig)
    i.HAL_RCC_GetPCLK1Freq                   0x08001df8   Section        0  stm32l0xx_hal_rcc.o(i.HAL_RCC_GetPCLK1Freq)
    i.HAL_RCC_GetPCLK2Freq                   0x08001e18   Section        0  stm32l0xx_hal_rcc.o(i.HAL_RCC_GetPCLK2Freq)
    i.HAL_RCC_GetSysClockFreq                0x08001e38   Section        0  stm32l0xx_hal_rcc.o(i.HAL_RCC_GetSysClockFreq)
    i.HAL_RCC_OscConfig                      0x08001eb0   Section        0  stm32l0xx_hal_rcc.o(i.HAL_RCC_OscConfig)
    i.HAL_RTCEx_BKUPRead                     0x080022cc   Section        0  stm32l0xx_hal_rtc_ex.o(i.HAL_RTCEx_BKUPRead)
    i.HAL_RTCEx_BKUPWrite                    0x080022d8   Section        0  stm32l0xx_hal_rtc_ex.o(i.HAL_RTCEx_BKUPWrite)
    i.HAL_RTCEx_DeactivateWakeUpTimer        0x080022e4   Section        0  stm32l0xx_hal_rtc_ex.o(i.HAL_RTCEx_DeactivateWakeUpTimer)
    i.HAL_RTCEx_SetWakeUpTimer_IT            0x08002360   Section        0  stm32l0xx_hal_rtc_ex.o(i.HAL_RTCEx_SetWakeUpTimer_IT)
    i.HAL_RTC_GetDate                        0x08002458   Section        0  stm32l0xx_hal_rtc.o(i.HAL_RTC_GetDate)
    i.HAL_RTC_GetTime                        0x0800249c   Section        0  stm32l0xx_hal_rtc.o(i.HAL_RTC_GetTime)
    i.HAL_RTC_Init                           0x080024f8   Section        0  stm32l0xx_hal_rtc.o(i.HAL_RTC_Init)
    i.HAL_RTC_MspInit                        0x080025b4   Section        0  rtc.o(i.HAL_RTC_MspInit)
    i.HAL_RTC_SetDate                        0x080025d4   Section        0  stm32l0xx_hal_rtc.o(i.HAL_RTC_SetDate)
    i.HAL_RTC_SetTime                        0x08002698   Section        0  stm32l0xx_hal_rtc.o(i.HAL_RTC_SetTime)
    i.HAL_RTC_WaitForSynchro                 0x08002780   Section        0  stm32l0xx_hal_rtc.o(i.HAL_RTC_WaitForSynchro)
    i.HAL_SYSTICK_Config                     0x080027b4   Section        0  stm32l0xx_hal_cortex.o(i.HAL_SYSTICK_Config)
    i.HAL_UARTEx_WakeupCallback              0x080027e4   Section        0  stm32l0xx_hal_uart_ex.o(i.HAL_UARTEx_WakeupCallback)
    i.HAL_UART_DMAStop                       0x080027e6   Section        0  stm32l0xx_hal_uart.o(i.HAL_UART_DMAStop)
    i.HAL_UART_ErrorCallback                 0x08002860   Section        0  stm32l0xx_hal_uart.o(i.HAL_UART_ErrorCallback)
    i.HAL_UART_IRQHandler                    0x08002864   Section        0  stm32l0xx_hal_uart.o(i.HAL_UART_IRQHandler)
    i.HAL_UART_Init                          0x080029a0   Section        0  stm32l0xx_hal_uart.o(i.HAL_UART_Init)
    i.HAL_UART_MspInit                       0x08002a0c   Section        0  usart.o(i.HAL_UART_MspInit)
    i.HAL_UART_Receive_DMA                   0x08002ae0   Section        0  stm32l0xx_hal_uart.o(i.HAL_UART_Receive_DMA)
    i.HAL_UART_RxCpltCallback                0x08002b98   Section        0  usart.o(i.HAL_UART_RxCpltCallback)
    i.HAL_UART_RxHalfCpltCallback            0x08002be0   Section        0  stm32l0xx_hal_uart.o(i.HAL_UART_RxHalfCpltCallback)
    i.HAL_UART_Transmit                      0x08002be2   Section        0  stm32l0xx_hal_uart.o(i.HAL_UART_Transmit)
    i.HAL_UART_TxCpltCallback                0x08002cb0   Section        0  stm32l0xx_hal_uart.o(i.HAL_UART_TxCpltCallback)
    i.HardFault_Handler                      0x08002cb2   Section        0  stm32l0xx_it.o(i.HardFault_Handler)
    i.MX_ADC_Init                            0x08002cb4   Section        0  adc.o(i.MX_ADC_Init)
    i.MX_DMA_Init                            0x08002d3c   Section        0  dma.o(i.MX_DMA_Init)
    i.MX_GPIO_Init                           0x08002d64   Section        0  gpio.o(i.MX_GPIO_Init)
    i.MX_RTC_Init                            0x08002e10   Section        0  rtc.o(i.MX_RTC_Init)
    i.MX_USART1_UART_Init                    0x08002e8c   Section        0  usart.o(i.MX_USART1_UART_Init)
    i.MX_USART2_UART_Init                    0x08002ec4   Section        0  usart.o(i.MX_USART2_UART_Init)
    i.Motor_Forward                          0x08002efc   Section        0  motor.o(i.Motor_Forward)
    i.Motor_Reverse                          0x08002f24   Section        0  motor.o(i.Motor_Reverse)
    i.Motor_Task                             0x08002f4c   Section        0  motor.o(i.Motor_Task)
    i.NMI_Handler                            0x080030f4   Section        0  stm32l0xx_it.o(i.NMI_Handler)
    i.NVIC_SetPriority                       0x080030f8   Section        0  stm32l0xx_hal_cortex.o(i.NVIC_SetPriority)
    NVIC_SetPriority                         0x080030f9   Thumb Code    60  stm32l0xx_hal_cortex.o(i.NVIC_SetPriority)
    i.PendSV_Handler                         0x0800313c   Section        0  stm32l0xx_it.o(i.PendSV_Handler)
    i.RTC_Bcd2ToByte                         0x0800313e   Section        0  stm32l0xx_hal_rtc.o(i.RTC_Bcd2ToByte)
    i.RTC_ByteToBcd2                         0x0800314e   Section        0  stm32l0xx_hal_rtc.o(i.RTC_ByteToBcd2)
    i.RTC_EnterInitMode                      0x08003166   Section        0  stm32l0xx_hal_rtc.o(i.RTC_EnterInitMode)
    i.RTC_Time_Config                        0x080031a0   Section        0  wakeup.o(i.RTC_Time_Config)
    i.SVC_Handler                            0x080031f0   Section        0  stm32l0xx_it.o(i.SVC_Handler)
    i.Switch_work                            0x080031f4   Section        0  motor.o(i.Switch_work)
    i.SysTick_Handler                        0x08003264   Section        0  stm32l0xx_it.o(i.SysTick_Handler)
    i.SystemClockConfig_STOP                 0x0800326c   Section        0  wakeup.o(i.SystemClockConfig_STOP)
    i.SystemClock_Config                     0x0800338c   Section        0  main.o(i.SystemClock_Config)
    i.SystemInit                             0x08003420   Section        0  system_stm32l0xx.o(i.SystemInit)
    i.SystemPower_Config                     0x08003474   Section        0  wakeup.o(i.SystemPower_Config)
    i.UART_AdvFeatureConfig                  0x08003524   Section        0  stm32l0xx_hal_uart.o(i.UART_AdvFeatureConfig)
    i.UART_CheckIdleState                    0x080035f0   Section        0  stm32l0xx_hal_uart.o(i.UART_CheckIdleState)
    i.UART_DMAAbortOnError                   0x08003650   Section        0  stm32l0xx_hal_uart.o(i.UART_DMAAbortOnError)
    UART_DMAAbortOnError                     0x08003651   Thumb Code    20  stm32l0xx_hal_uart.o(i.UART_DMAAbortOnError)
    i.UART_DMAError                          0x08003664   Section        0  stm32l0xx_hal_uart.o(i.UART_DMAError)
    UART_DMAError                            0x08003665   Thumb Code    72  stm32l0xx_hal_uart.o(i.UART_DMAError)
    i.UART_DMAReceiveCplt                    0x080036ac   Section        0  stm32l0xx_hal_uart.o(i.UART_DMAReceiveCplt)
    UART_DMAReceiveCplt                      0x080036ad   Thumb Code    62  stm32l0xx_hal_uart.o(i.UART_DMAReceiveCplt)
    i.UART_DMARxHalfCplt                     0x080036ea   Section        0  stm32l0xx_hal_uart.o(i.UART_DMARxHalfCplt)
    UART_DMARxHalfCplt                       0x080036eb   Thumb Code    10  stm32l0xx_hal_uart.o(i.UART_DMARxHalfCplt)
    i.UART_EndRxTransfer                     0x080036f4   Section        0  stm32l0xx_hal_uart.o(i.UART_EndRxTransfer)
    UART_EndRxTransfer                       0x080036f5   Thumb Code    32  stm32l0xx_hal_uart.o(i.UART_EndRxTransfer)
    i.UART_EndTxTransfer                     0x08003714   Section        0  stm32l0xx_hal_uart.o(i.UART_EndTxTransfer)
    UART_EndTxTransfer                       0x08003715   Thumb Code    16  stm32l0xx_hal_uart.o(i.UART_EndTxTransfer)
    i.UART_SetConfig                         0x08003724   Section        0  stm32l0xx_hal_uart.o(i.UART_SetConfig)
    i.UART_WaitOnFlagUntilTimeout            0x0800394c   Section        0  stm32l0xx_hal_uart.o(i.UART_WaitOnFlagUntilTimeout)
    i.USART2_IRQHandler                      0x080039b0   Section        0  stm32l0xx_it.o(i.USART2_IRQHandler)
    i.__0printf                              0x08003a00   Section        0  printfa.o(i.__0printf)
    i.__0sprintf                             0x08003a20   Section        0  printfa.o(i.__0sprintf)
    i.__ARM_clz                              0x08003a48   Section        0  depilogue.o(i.__ARM_clz)
    i.__ARM_common_switch8                   0x08003a76   Section        0  motor.o(i.__ARM_common_switch8)
    i.__aeabi_errno_addr                     0x08003a90   Section        0  errno.o(i.__aeabi_errno_addr)
    i.__scatterload_copy                     0x08003a98   Section       14  handlers.o(i.__scatterload_copy)
    i.__scatterload_null                     0x08003aa6   Section        2  handlers.o(i.__scatterload_null)
    i.__scatterload_zeroinit                 0x08003aa8   Section       14  handlers.o(i.__scatterload_zeroinit)
    i._fp_digits                             0x08003ab8   Section        0  printfa.o(i._fp_digits)
    _fp_digits                               0x08003ab9   Thumb Code   344  printfa.o(i._fp_digits)
    i._printf_core                           0x08003c2c   Section        0  printfa.o(i._printf_core)
    _printf_core                             0x08003c2d   Thumb Code  1754  printfa.o(i._printf_core)
    i._printf_post_padding                   0x08004318   Section        0  printfa.o(i._printf_post_padding)
    _printf_post_padding                     0x08004319   Thumb Code    32  printfa.o(i._printf_post_padding)
    i._printf_pre_padding                    0x08004338   Section        0  printfa.o(i._printf_pre_padding)
    _printf_pre_padding                      0x08004339   Thumb Code    44  printfa.o(i._printf_pre_padding)
    i._sputc                                 0x08004364   Section        0  printfa.o(i._sputc)
    _sputc                                   0x08004365   Thumb Code    10  printfa.o(i._sputc)
    i.fputc                                  0x08004370   Section        0  usart.o(i.fputc)
    i.main                                   0x0800438c   Section        0  main.o(i.main)
    i.time2Stamp                             0x0800449c   Section        0  rtc.o(i.time2Stamp)
    .constdata                               0x08004564   Section       25  system_stm32l0xx.o(.constdata)
    .constdata                               0x0800457d   Section        8  system_stm32l0xx.o(.constdata)
    .constdata                               0x08004585   Section       12  mktime.o(.constdata)
    monlen                                   0x08004585   Data          12  mktime.o(.constdata)
    .constdata                               0x08004591   Section       12  localtime_i.o(.constdata)
    monlen                                   0x08004591   Data          12  localtime_i.o(.constdata)
    .constdata                               0x0800459d   Section      129  ctype_o.o(.constdata)
    .constdata                               0x08004620   Section        4  ctype_o.o(.constdata)
    table                                    0x08004620   Data           4  ctype_o.o(.constdata)
    .data                                    0x20000000   Section       16  motor.o(.data)
    VREFINT_DATA                             0x20000002   Data           2  motor.o(.data)
    BAT_DATA                                 0x20000004   Data           2  motor.o(.data)
    VREFINT_CAL                              0x20000006   Data           2  motor.o(.data)
    VDDA_val                                 0x20000008   Data           4  motor.o(.data)
    BAT_val                                  0x2000000c   Data           4  motor.o(.data)
    .data                                    0x20000010   Section        8  bg22.o(.data)
    .data                                    0x20000018   Section        4  rtc.o(.data)
    .data                                    0x2000001c   Section       12  stm32l0xx_hal.o(.data)
    .data                                    0x20000028   Section        4  system_stm32l0xx.o(.data)
    .data                                    0x2000002c   Section        4  stdout.o(.data)
    .data                                    0x20000030   Section        4  errno.o(.data)
    _errno                                   0x20000030   Data           4  errno.o(.data)
    .bss                                     0x20000034   Section       32  motor.o(.bss)
    .bss                                     0x20000054   Section       92  adc.o(.bss)
    .bss                                     0x200000b0   Section       56  rtc.o(.bss)
    .bss                                     0x200000e8   Section      720  usart.o(.bss)
    .bss                                     0x200003b8   Section       44  localtime_w.o(.bss)
    _tms                                     0x200003b8   Data          44  localtime_w.o(.bss)
    STACK                                    0x200003e8   Section     2048  startup_stm32l051xx.o(STACK)

    Global Symbols

    Symbol Name                              Value     Ov Type        Size  Object(Section)

    BuildAttributes$$THM_ISAv3M$S$PE$A:L22$X:L11$S22$IEEE1$IW$USESV6$~STKCKD$USESV7$~SHL$OTIME$ROPI$EBA8$MICROLIB$REQ8$PRES8$EABIv2 0x00000000   Number         0  anon$$obj.o ABSOLUTE
    __ARM_use_no_argv                        0x00000000   Number         0  main.o ABSOLUTE
    _printf_a                                0x00000000   Number         0  stubs.o ABSOLUTE
    _printf_c                                0x00000000   Number         0  stubs.o ABSOLUTE
    _printf_charcount                        0x00000000   Number         0  stubs.o ABSOLUTE
    _printf_d                                0x00000000   Number         0  stubs.o ABSOLUTE
    _printf_e                                0x00000000   Number         0  stubs.o ABSOLUTE
    _printf_f                                0x00000000   Number         0  stubs.o ABSOLUTE
    _printf_flags                            0x00000000   Number         0  stubs.o ABSOLUTE
    _printf_fp_dec                           0x00000000   Number         0  stubs.o ABSOLUTE
    _printf_fp_hex                           0x00000000   Number         0  stubs.o ABSOLUTE
    _printf_g                                0x00000000   Number         0  stubs.o ABSOLUTE
    _printf_i                                0x00000000   Number         0  stubs.o ABSOLUTE
    _printf_int_dec                          0x00000000   Number         0  stubs.o ABSOLUTE
    _printf_l                                0x00000000   Number         0  stubs.o ABSOLUTE
    _printf_lc                               0x00000000   Number         0  stubs.o ABSOLUTE
    _printf_ll                               0x00000000   Number         0  stubs.o ABSOLUTE
    _printf_lld                              0x00000000   Number         0  stubs.o ABSOLUTE
    _printf_lli                              0x00000000   Number         0  stubs.o ABSOLUTE
    _printf_llo                              0x00000000   Number         0  stubs.o ABSOLUTE
    _printf_llu                              0x00000000   Number         0  stubs.o ABSOLUTE
    _printf_llx                              0x00000000   Number         0  stubs.o ABSOLUTE
    _printf_longlong_dec                     0x00000000   Number         0  stubs.o ABSOLUTE
    _printf_longlong_hex                     0x00000000   Number         0  stubs.o ABSOLUTE
    _printf_longlong_oct                     0x00000000   Number         0  stubs.o ABSOLUTE
    _printf_ls                               0x00000000   Number         0  stubs.o ABSOLUTE
    _printf_mbtowc                           0x00000000   Number         0  stubs.o ABSOLUTE
    _printf_n                                0x00000000   Number         0  stubs.o ABSOLUTE
    _printf_o                                0x00000000   Number         0  stubs.o ABSOLUTE
    _printf_p                                0x00000000   Number         0  stubs.o ABSOLUTE
    _printf_percent                          0x00000000   Number         0  stubs.o ABSOLUTE
    _printf_pre_padding                      0x00000000   Number         0  stubs.o ABSOLUTE
    _printf_return_value                     0x00000000   Number         0  stubs.o ABSOLUTE
    _printf_s                                0x00000000   Number         0  stubs.o ABSOLUTE
    _printf_sizespec                         0x00000000   Number         0  stubs.o ABSOLUTE
    _printf_str                              0x00000000   Number         0  stubs.o ABSOLUTE
    _printf_truncate_signed                  0x00000000   Number         0  stubs.o ABSOLUTE
    _printf_truncate_unsigned                0x00000000   Number         0  stubs.o ABSOLUTE
    _printf_u                                0x00000000   Number         0  stubs.o ABSOLUTE
    _printf_wc                               0x00000000   Number         0  stubs.o ABSOLUTE
    _printf_wctomb                           0x00000000   Number         0  stubs.o ABSOLUTE
    _printf_widthprec                        0x00000000   Number         0  stubs.o ABSOLUTE
    _printf_x                                0x00000000   Number         0  stubs.o ABSOLUTE
    __cpp_initialize__aeabi_                  - Undefined Weak Reference
    __cxa_finalize                            - Undefined Weak Reference
    __decompress                              - Undefined Weak Reference
    _clock_init                               - Undefined Weak Reference
    _microlib_exit                            - Undefined Weak Reference
    __Vectors_Size                           0x000000c0   Number         0  startup_stm32l051xx.o ABSOLUTE
    __Vectors                                0x08000000   Data           4  startup_stm32l051xx.o(RESET)
    __Vectors_End                            0x080000c0   Data           0  startup_stm32l051xx.o(RESET)
    __main                                   0x080000c1   Thumb Code     0  entry.o(.ARM.Collect$$$$00000000)
    _main_stk                                0x080000c1   Thumb Code     0  entry2.o(.ARM.Collect$$$$00000001)
    _main_scatterload                        0x080000c5   Thumb Code     0  entry5.o(.ARM.Collect$$$$00000004)
    __main_after_scatterload                 0x080000c9   Thumb Code     0  entry5.o(.ARM.Collect$$$$00000004)
    _main_clock                              0x080000c9   Thumb Code     0  entry7b.o(.ARM.Collect$$$$00000008)
    _main_cpp_init                           0x080000c9   Thumb Code     0  entry8b.o(.ARM.Collect$$$$0000000A)
    _main_init                               0x080000c9   Thumb Code     0  entry9a.o(.ARM.Collect$$$$0000000B)
    __rt_final_cpp                           0x080000d1   Thumb Code     0  entry10a.o(.ARM.Collect$$$$0000000D)
    __rt_final_exit                          0x080000d1   Thumb Code     0  entry11a.o(.ARM.Collect$$$$0000000F)
    Reset_Handler                            0x080000d5   Thumb Code     8  startup_stm32l051xx.o(.text)
    ADC1_COMP_IRQHandler                     0x080000e7   Thumb Code     0  startup_stm32l051xx.o(.text)
    DMA1_Channel1_IRQHandler                 0x080000e7   Thumb Code     0  startup_stm32l051xx.o(.text)
    DMA1_Channel2_3_IRQHandler               0x080000e7   Thumb Code     0  startup_stm32l051xx.o(.text)
    EXTI0_1_IRQHandler                       0x080000e7   Thumb Code     0  startup_stm32l051xx.o(.text)
    EXTI4_15_IRQHandler                      0x080000e7   Thumb Code     0  startup_stm32l051xx.o(.text)
    FLASH_IRQHandler                         0x080000e7   Thumb Code     0  startup_stm32l051xx.o(.text)
    I2C1_IRQHandler                          0x080000e7   Thumb Code     0  startup_stm32l051xx.o(.text)
    I2C2_IRQHandler                          0x080000e7   Thumb Code     0  startup_stm32l051xx.o(.text)
    LPTIM1_IRQHandler                        0x080000e7   Thumb Code     0  startup_stm32l051xx.o(.text)
    LPUART1_IRQHandler                       0x080000e7   Thumb Code     0  startup_stm32l051xx.o(.text)
    PVD_IRQHandler                           0x080000e7   Thumb Code     0  startup_stm32l051xx.o(.text)
    RCC_IRQHandler                           0x080000e7   Thumb Code     0  startup_stm32l051xx.o(.text)
    RTC_IRQHandler                           0x080000e7   Thumb Code     0  startup_stm32l051xx.o(.text)
    SPI1_IRQHandler                          0x080000e7   Thumb Code     0  startup_stm32l051xx.o(.text)
    SPI2_IRQHandler                          0x080000e7   Thumb Code     0  startup_stm32l051xx.o(.text)
    TIM21_IRQHandler                         0x080000e7   Thumb Code     0  startup_stm32l051xx.o(.text)
    TIM22_IRQHandler                         0x080000e7   Thumb Code     0  startup_stm32l051xx.o(.text)
    TIM2_IRQHandler                          0x080000e7   Thumb Code     0  startup_stm32l051xx.o(.text)
    TIM6_IRQHandler                          0x080000e7   Thumb Code     0  startup_stm32l051xx.o(.text)
    USART1_IRQHandler                        0x080000e7   Thumb Code     0  startup_stm32l051xx.o(.text)
    WWDG_IRQHandler                          0x080000e7   Thumb Code     0  startup_stm32l051xx.o(.text)
    __aeabi_uidiv                            0x080000f1   Thumb Code     0  uidiv.o(.text)
    __aeabi_uidivmod                         0x080000f1   Thumb Code    44  uidiv.o(.text)
    __aeabi_uldivmod                         0x0800011d   Thumb Code    96  uldiv.o(.text)
    mktime                                   0x0800017d   Thumb Code   124  mktime.o(.text)
    __aeabi_memcpy                           0x08000209   Thumb Code    36  memcpya.o(.text)
    __aeabi_memcpy4                          0x08000209   Thumb Code     0  memcpya.o(.text)
    __aeabi_memcpy8                          0x08000209   Thumb Code     0  memcpya.o(.text)
    __aeabi_memset                           0x0800022d   Thumb Code    14  memseta.o(.text)
    __aeabi_memset4                          0x0800022d   Thumb Code     0  memseta.o(.text)
    __aeabi_memset8                          0x0800022d   Thumb Code     0  memseta.o(.text)
    __aeabi_memclr                           0x0800023b   Thumb Code     4  memseta.o(.text)
    __aeabi_memclr4                          0x0800023b   Thumb Code     0  memseta.o(.text)
    __aeabi_memclr8                          0x0800023b   Thumb Code     0  memseta.o(.text)
    _memset$wrapper                          0x0800023f   Thumb Code    18  memseta.o(.text)
    strstr                                   0x08000251   Thumb Code    40  strstr.o(.text)
    strlen                                   0x08000279   Thumb Code    14  strlen.o(.text)
    atoi                                     0x08000287   Thumb Code    26  atoi.o(.text)
    __aeabi_fadd                             0x080002a1   Thumb Code   162  fadd.o(.text)
    __aeabi_fsub                             0x08000343   Thumb Code     8  fadd.o(.text)
    __aeabi_frsub                            0x0800034b   Thumb Code     8  fadd.o(.text)
    __aeabi_fmul                             0x08000353   Thumb Code   122  fmul.o(.text)
    __ARM_scalbnf                            0x080003cd   Thumb Code    24  fscalb.o(.text)
    scalbnf                                  0x080003cd   Thumb Code     0  fscalb.o(.text)
    __aeabi_dmul                             0x080003e5   Thumb Code   202  dmul.o(.text)
    __aeabi_ddiv                             0x080004b5   Thumb Code   234  ddiv.o(.text)
    __aeabi_ui2f                             0x080005a5   Thumb Code    14  ffltui.o(.text)
    __aeabi_ui2d                             0x080005b5   Thumb Code    24  dfltui.o(.text)
    __aeabi_f2d                              0x080005d1   Thumb Code    40  f2d.o(.text)
    __aeabi_d2f                              0x080005f9   Thumb Code    56  d2f.o(.text)
    __aeabi_idiv                             0x08000631   Thumb Code     0  idiv.o(.text)
    __aeabi_idivmod                          0x08000631   Thumb Code    40  idiv.o(.text)
    __aeabi_llsl                             0x08000659   Thumb Code    32  llshl.o(.text)
    _ll_shift_l                              0x08000659   Thumb Code     0  llshl.o(.text)
    __aeabi_llsr                             0x08000679   Thumb Code    34  llushr.o(.text)
    _ll_ushift_r                             0x08000679   Thumb Code     0  llushr.o(.text)
    localtime                                0x0800069d   Thumb Code    10  localtime_w.o(.text)
    _localtime                               0x080006ad   Thumb Code   104  localtime_i.o(.text)
    strtol                                   0x08000721   Thumb Code   108  strtol.o(.text)
    __I$use$fp                               0x08000791   Thumb Code     0  iusefp.o(.text)
    _float_round                             0x08000791   Thumb Code    16  fepilogue.o(.text)
    _float_epilogue                          0x080007a1   Thumb Code   114  fepilogue.o(.text)
    _double_round                            0x08000813   Thumb Code    26  depilogue.o(.text)
    _double_epilogue                         0x0800082d   Thumb Code   164  depilogue.o(.text)
    __aeabi_dadd                             0x080008d1   Thumb Code   328  dadd.o(.text)
    __aeabi_dsub                             0x08000a19   Thumb Code    12  dadd.o(.text)
    __aeabi_drsub                            0x08000a25   Thumb Code    12  dadd.o(.text)
    __aeabi_d2ulz                            0x08000a35   Thumb Code    54  dfixul.o(.text)
    __aeabi_cdrcmple                         0x08000a75   Thumb Code    38  cdrcmple.o(.text)
    __scatterload                            0x08000a9d   Thumb Code    28  init.o(.text)
    __scatterload_rt2                        0x08000a9d   Thumb Code     0  init.o(.text)
    __aeabi_lasr                             0x08000ac1   Thumb Code    38  llsshr.o(.text)
    _ll_sshift_r                             0x08000ac1   Thumb Code     0  llsshr.o(.text)
    __rt_ctype_table                         0x08000ae9   Thumb Code     4  ctype_o.o(.text)
    _strtoul                                 0x08000af1   Thumb Code   166  _strtoul.o(.text)
    _chval                                   0x08000b97   Thumb Code    30  _chval.o(.text)
    Adc_Calibration                          0x08000bd9   Thumb Code    44  motor.o(i.Adc_Calibration)
    BLE_Chack_Name                           0x08000c11   Thumb Code    56  bg22.o(i.BLE_Chack_Name)
    BLE_Enable_AT                            0x08000c61   Thumb Code    84  bg22.o(i.BLE_Enable_AT)
    BLE_Enable_ATE0                          0x08000cc9   Thumb Code    56  bg22.o(i.BLE_Enable_ATE0)
    BLE_Enter_Sleep                          0x08000d19   Thumb Code    68  bg22.o(i.BLE_Enter_Sleep)
    BLE_Exit_AT                              0x08000d91   Thumb Code    66  bg22.o(i.BLE_Exit_AT)
    BLE_Send_test                            0x08000e0d   Thumb Code    92  bg22.o(i.BLE_Send_test)
    BLE_report                               0x08000e95   Thumb Code   100  motor.o(i.BLE_report)
    BLE_uart_task                            0x08000f41   Thumb Code   350  bg22.o(i.BLE_uart_task)
    Calibration_Times                        0x08001131   Thumb Code   164  my_string.o(i.Calibration_Times)
    DMA1_Channel4_5_6_7_IRQHandler           0x08001201   Thumb Code    10  stm32l0xx_it.o(i.DMA1_Channel4_5_6_7_IRQHandler)
    EXTI2_3_IRQHandler                       0x0800123d   Thumb Code    10  stm32l0xx_it.o(i.EXTI2_3_IRQHandler)
    EnableUsart_IT                           0x08001249   Thumb Code    40  usart.o(i.EnableUsart_IT)
    Error_Handler                            0x08001279   Thumb Code     2  main.o(i.Error_Handler)
    Find_string                              0x0800127d   Thumb Code    72  my_string.o(i.Find_string)
    Get_bat_val                              0x080012dd   Thumb Code   104  motor.o(i.Get_bat_val)
    HAL_ADC_ConfigChannel                    0x08001351   Thumb Code   140  stm32l0xx_hal_adc.o(i.HAL_ADC_ConfigChannel)
    HAL_ADC_Init                             0x080013e5   Thumb Code   446  stm32l0xx_hal_adc.o(i.HAL_ADC_Init)
    HAL_ADC_MspInit                          0x080015ad   Thumb Code    72  adc.o(i.HAL_ADC_MspInit)
    HAL_DMA_Abort                            0x080015fd   Thumb Code    68  stm32l0xx_hal_dma.o(i.HAL_DMA_Abort)
    HAL_DMA_Abort_IT                         0x08001641   Thumb Code    76  stm32l0xx_hal_dma.o(i.HAL_DMA_Abort_IT)
    HAL_DMA_GetError                         0x0800168d   Thumb Code     4  stm32l0xx_hal_dma.o(i.HAL_DMA_GetError)
    HAL_DMA_IRQHandler                       0x08001691   Thumb Code   168  stm32l0xx_hal_dma.o(i.HAL_DMA_IRQHandler)
    HAL_DMA_Init                             0x08001739   Thumb Code   132  stm32l0xx_hal_dma.o(i.HAL_DMA_Init)
    HAL_DMA_Start_IT                         0x080017c9   Thumb Code   104  stm32l0xx_hal_dma.o(i.HAL_DMA_Start_IT)
    HAL_Delay                                0x08001831   Thumb Code    32  stm32l0xx_hal.o(i.HAL_Delay)
    HAL_GPIO_EXTI_Callback                   0x08001855   Thumb Code    18  usart.o(i.HAL_GPIO_EXTI_Callback)
    HAL_GPIO_EXTI_IRQHandler                 0x0800186d   Thumb Code    18  stm32l0xx_hal_gpio.o(i.HAL_GPIO_EXTI_IRQHandler)
    HAL_GPIO_Init                            0x08001885   Thumb Code   346  stm32l0xx_hal_gpio.o(i.HAL_GPIO_Init)
    HAL_GPIO_WritePin                        0x080019fd   Thumb Code    12  stm32l0xx_hal_gpio.o(i.HAL_GPIO_WritePin)
    HAL_GetTick                              0x08001a09   Thumb Code     6  stm32l0xx_hal.o(i.HAL_GetTick)
    HAL_IncTick                              0x08001a15   Thumb Code    12  stm32l0xx_hal.o(i.HAL_IncTick)
    HAL_Init                                 0x08001a25   Thumb Code    36  stm32l0xx_hal.o(i.HAL_Init)
    HAL_InitTick                             0x08001a4d   Thumb Code    58  stm32l0xx_hal.o(i.HAL_InitTick)
    HAL_MspInit                              0x08001a91   Thumb Code    20  stm32l0xx_hal_msp.o(i.HAL_MspInit)
    HAL_NVIC_EnableIRQ                       0x08001aa9   Thumb Code    14  stm32l0xx_hal_cortex.o(i.HAL_NVIC_EnableIRQ)
    HAL_NVIC_SetPriority                     0x08001abd   Thumb Code     8  stm32l0xx_hal_cortex.o(i.HAL_NVIC_SetPriority)
    HAL_PWREx_EnableFastWakeUp               0x08001ac5   Thumb Code    12  stm32l0xx_hal_pwr_ex.o(i.HAL_PWREx_EnableFastWakeUp)
    HAL_PWREx_EnableUltraLowPower            0x08001ad5   Thumb Code    12  stm32l0xx_hal_pwr_ex.o(i.HAL_PWREx_EnableUltraLowPower)
    HAL_PWR_EnableBkUpAccess                 0x08001ae5   Thumb Code    12  stm32l0xx_hal_pwr.o(i.HAL_PWR_EnableBkUpAccess)
    HAL_PWR_EnterSTOPMode                    0x08001af5   Thumb Code    44  stm32l0xx_hal_pwr.o(i.HAL_PWR_EnterSTOPMode)
    HAL_RCCEx_PeriphCLKConfig                0x08001b29   Thumb Code   342  stm32l0xx_hal_rcc_ex.o(i.HAL_RCCEx_PeriphCLKConfig)
    HAL_RCC_ClockConfig                      0x08001c8d   Thumb Code   344  stm32l0xx_hal_rcc.o(i.HAL_RCC_ClockConfig)
    HAL_RCC_GetPCLK1Freq                     0x08001df9   Thumb Code    20  stm32l0xx_hal_rcc.o(i.HAL_RCC_GetPCLK1Freq)
    HAL_RCC_GetPCLK2Freq                     0x08001e19   Thumb Code    20  stm32l0xx_hal_rcc.o(i.HAL_RCC_GetPCLK2Freq)
    HAL_RCC_GetSysClockFreq                  0x08001e39   Thumb Code   100  stm32l0xx_hal_rcc.o(i.HAL_RCC_GetSysClockFreq)
    HAL_RCC_OscConfig                        0x08001eb1   Thumb Code  1052  stm32l0xx_hal_rcc.o(i.HAL_RCC_OscConfig)
    HAL_RTCEx_BKUPRead                       0x080022cd   Thumb Code    12  stm32l0xx_hal_rtc_ex.o(i.HAL_RTCEx_BKUPRead)
    HAL_RTCEx_BKUPWrite                      0x080022d9   Thumb Code    12  stm32l0xx_hal_rtc_ex.o(i.HAL_RTCEx_BKUPWrite)
    HAL_RTCEx_DeactivateWakeUpTimer          0x080022e5   Thumb Code   122  stm32l0xx_hal_rtc_ex.o(i.HAL_RTCEx_DeactivateWakeUpTimer)
    HAL_RTCEx_SetWakeUpTimer_IT              0x08002361   Thumb Code   238  stm32l0xx_hal_rtc_ex.o(i.HAL_RTCEx_SetWakeUpTimer_IT)
    HAL_RTC_GetDate                          0x08002459   Thumb Code    68  stm32l0xx_hal_rtc.o(i.HAL_RTC_GetDate)
    HAL_RTC_GetTime                          0x0800249d   Thumb Code    88  stm32l0xx_hal_rtc.o(i.HAL_RTC_GetTime)
    HAL_RTC_Init                             0x080024f9   Thumb Code   184  stm32l0xx_hal_rtc.o(i.HAL_RTC_Init)
    HAL_RTC_MspInit                          0x080025b5   Thumb Code    22  rtc.o(i.HAL_RTC_MspInit)
    HAL_RTC_SetDate                          0x080025d5   Thumb Code   190  stm32l0xx_hal_rtc.o(i.HAL_RTC_SetDate)
    HAL_RTC_SetTime                          0x08002699   Thumb Code   228  stm32l0xx_hal_rtc.o(i.HAL_RTC_SetTime)
    HAL_RTC_WaitForSynchro                   0x08002781   Thumb Code    52  stm32l0xx_hal_rtc.o(i.HAL_RTC_WaitForSynchro)
    HAL_SYSTICK_Config                       0x080027b5   Thumb Code    38  stm32l0xx_hal_cortex.o(i.HAL_SYSTICK_Config)
    HAL_UARTEx_WakeupCallback                0x080027e5   Thumb Code     2  stm32l0xx_hal_uart_ex.o(i.HAL_UARTEx_WakeupCallback)
    HAL_UART_DMAStop                         0x080027e7   Thumb Code   122  stm32l0xx_hal_uart.o(i.HAL_UART_DMAStop)
    HAL_UART_ErrorCallback                   0x08002861   Thumb Code     2  stm32l0xx_hal_uart.o(i.HAL_UART_ErrorCallback)
    HAL_UART_IRQHandler                      0x08002865   Thumb Code   310  stm32l0xx_hal_uart.o(i.HAL_UART_IRQHandler)
    HAL_UART_Init                            0x080029a1   Thumb Code   106  stm32l0xx_hal_uart.o(i.HAL_UART_Init)
    HAL_UART_MspInit                         0x08002a0d   Thumb Code   190  usart.o(i.HAL_UART_MspInit)
    HAL_UART_Receive_DMA                     0x08002ae1   Thumb Code   170  stm32l0xx_hal_uart.o(i.HAL_UART_Receive_DMA)
    HAL_UART_RxCpltCallback                  0x08002b99   Thumb Code    46  usart.o(i.HAL_UART_RxCpltCallback)
    HAL_UART_RxHalfCpltCallback              0x08002be1   Thumb Code     2  stm32l0xx_hal_uart.o(i.HAL_UART_RxHalfCpltCallback)
    HAL_UART_Transmit                        0x08002be3   Thumb Code   206  stm32l0xx_hal_uart.o(i.HAL_UART_Transmit)
    HAL_UART_TxCpltCallback                  0x08002cb1   Thumb Code     2  stm32l0xx_hal_uart.o(i.HAL_UART_TxCpltCallback)
    HardFault_Handler                        0x08002cb3   Thumb Code     2  stm32l0xx_it.o(i.HardFault_Handler)
    MX_ADC_Init                              0x08002cb5   Thumb Code   120  adc.o(i.MX_ADC_Init)
    MX_DMA_Init                              0x08002d3d   Thumb Code    36  dma.o(i.MX_DMA_Init)
    MX_GPIO_Init                             0x08002d65   Thumb Code   158  gpio.o(i.MX_GPIO_Init)
    MX_RTC_Init                              0x08002e11   Thumb Code   116  rtc.o(i.MX_RTC_Init)
    MX_USART1_UART_Init                      0x08002e8d   Thumb Code    48  usart.o(i.MX_USART1_UART_Init)
    MX_USART2_UART_Init                      0x08002ec5   Thumb Code    48  usart.o(i.MX_USART2_UART_Init)
    Motor_Forward                            0x08002efd   Thumb Code    36  motor.o(i.Motor_Forward)
    Motor_Reverse                            0x08002f25   Thumb Code    36  motor.o(i.Motor_Reverse)
    Motor_Task                               0x08002f4d   Thumb Code   276  motor.o(i.Motor_Task)
    NMI_Handler                              0x080030f5   Thumb Code     2  stm32l0xx_it.o(i.NMI_Handler)
    PendSV_Handler                           0x0800313d   Thumb Code     2  stm32l0xx_it.o(i.PendSV_Handler)
    RTC_Bcd2ToByte                           0x0800313f   Thumb Code    16  stm32l0xx_hal_rtc.o(i.RTC_Bcd2ToByte)
    RTC_ByteToBcd2                           0x0800314f   Thumb Code    24  stm32l0xx_hal_rtc.o(i.RTC_ByteToBcd2)
    RTC_EnterInitMode                        0x08003167   Thumb Code    56  stm32l0xx_hal_rtc.o(i.RTC_EnterInitMode)
    RTC_Time_Config                          0x080031a1   Thumb Code    40  wakeup.o(i.RTC_Time_Config)
    SVC_Handler                              0x080031f1   Thumb Code     2  stm32l0xx_it.o(i.SVC_Handler)
    Switch_work                              0x080031f5   Thumb Code   106  motor.o(i.Switch_work)
    SysTick_Handler                          0x08003265   Thumb Code     8  stm32l0xx_it.o(i.SysTick_Handler)
    SystemClockConfig_STOP                   0x0800326d   Thumb Code   276  wakeup.o(i.SystemClockConfig_STOP)
    SystemClock_Config                       0x0800338d   Thumb Code   140  main.o(i.SystemClock_Config)
    SystemInit                               0x08003421   Thumb Code    66  system_stm32l0xx.o(i.SystemInit)
    SystemPower_Config                       0x08003475   Thumb Code   136  wakeup.o(i.SystemPower_Config)
    UART_AdvFeatureConfig                    0x08003525   Thumb Code   202  stm32l0xx_hal_uart.o(i.UART_AdvFeatureConfig)
    UART_CheckIdleState                      0x080035f1   Thumb Code    90  stm32l0xx_hal_uart.o(i.UART_CheckIdleState)
    UART_SetConfig                           0x08003725   Thumb Code   506  stm32l0xx_hal_uart.o(i.UART_SetConfig)
    UART_WaitOnFlagUntilTimeout              0x0800394d   Thumb Code    98  stm32l0xx_hal_uart.o(i.UART_WaitOnFlagUntilTimeout)
    USART2_IRQHandler                        0x080039b1   Thumb Code    68  stm32l0xx_it.o(i.USART2_IRQHandler)
    __0printf                                0x08003a01   Thumb Code    24  printfa.o(i.__0printf)
    __1printf                                0x08003a01   Thumb Code     0  printfa.o(i.__0printf)
    __2printf                                0x08003a01   Thumb Code     0  printfa.o(i.__0printf)
    __c89printf                              0x08003a01   Thumb Code     0  printfa.o(i.__0printf)
    printf                                   0x08003a01   Thumb Code     0  printfa.o(i.__0printf)
    __0sprintf                               0x08003a21   Thumb Code    36  printfa.o(i.__0sprintf)
    __1sprintf                               0x08003a21   Thumb Code     0  printfa.o(i.__0sprintf)
    __2sprintf                               0x08003a21   Thumb Code     0  printfa.o(i.__0sprintf)
    __c89sprintf                             0x08003a21   Thumb Code     0  printfa.o(i.__0sprintf)
    sprintf                                  0x08003a21   Thumb Code     0  printfa.o(i.__0sprintf)
    __ARM_clz                                0x08003a49   Thumb Code    46  depilogue.o(i.__ARM_clz)
    __ARM_common_switch8                     0x08003a77   Thumb Code    26  motor.o(i.__ARM_common_switch8)
    __aeabi_errno_addr                       0x08003a91   Thumb Code     4  errno.o(i.__aeabi_errno_addr)
    __rt_errno_addr                          0x08003a91   Thumb Code     0  errno.o(i.__aeabi_errno_addr)
    __scatterload_copy                       0x08003a99   Thumb Code    14  handlers.o(i.__scatterload_copy)
    __scatterload_null                       0x08003aa7   Thumb Code     2  handlers.o(i.__scatterload_null)
    __scatterload_zeroinit                   0x08003aa9   Thumb Code    14  handlers.o(i.__scatterload_zeroinit)
    fputc                                    0x08004371   Thumb Code    18  usart.o(i.fputc)
    main                                     0x0800438d   Thumb Code   150  main.o(i.main)
    time2Stamp                               0x0800449d   Thumb Code   130  rtc.o(i.time2Stamp)
    AHBPrescTable                            0x08004564   Data          16  system_stm32l0xx.o(.constdata)
    PLLMulTable                              0x08004574   Data           9  system_stm32l0xx.o(.constdata)
    APBPrescTable                            0x0800457d   Data           8  system_stm32l0xx.o(.constdata)
    __ctype_table                            0x0800459d   Data         129  ctype_o.o(.constdata)
    Region$$Table$$Base                      0x08004624   Number         0  anon$$obj.o(Region$$Table)
    Region$$Table$$Limit                     0x08004644   Number         0  anon$$obj.o(Region$$Table)
    Motor_Status                             0x20000000   Data           1  motor.o(.data)
    RTC_wakeup_time                          0x20000010   Data           2  bg22.o(.data)
    SMT_wakeup_time                          0x20000014   Data           4  bg22.o(.data)
    sdatestructure                           0x20000018   Data           4  rtc.o(.data)
    uwTickFreq                               0x2000001c   Data           1  stm32l0xx_hal.o(.data)
    uwTickPrio                               0x20000020   Data           4  stm32l0xx_hal.o(.data)
    uwTick                                   0x20000024   Data           4  stm32l0xx_hal.o(.data)
    SystemCoreClock                          0x20000028   Data           4  system_stm32l0xx.o(.data)
    __stdout                                 0x2000002c   Data           4  stdout.o(.data)
    Motor_mod                                0x20000034   Data          32  motor.o(.bss)
    hadc                                     0x20000054   Data          92  adc.o(.bss)
    stimestructure                           0x200000b0   Data          20  rtc.o(.bss)
    hrtc                                     0x200000c4   Data          36  rtc.o(.bss)
    Usart2type                               0x200000e8   Data         390  usart.o(.bss)
    huart1                                   0x20000270   Data         128  usart.o(.bss)
    huart2                                   0x200002f0   Data         128  usart.o(.bss)
    hdma_usart2_rx                           0x20000370   Data          72  usart.o(.bss)
    __initial_sp                             0x20000be8   Data           0  startup_stm32l051xx.o(STACK)



==============================================================================

Memory Map of the image

  Image Entry point : 0x080000c1

  Load Region LR_IROM1 (Base: 0x08000000, Size: 0x00004678, Max: 0x00010000, ABSOLUTE)

    Execution Region ER_IROM1 (Exec base: 0x08000000, Load base: 0x08000000, Size: 0x00004644, Max: 0x00010000, ABSOLUTE)

    Exec Addr    Load Addr    Size         Type   Attr      Idx    E Section Name        Object

    0x08000000   0x08000000   0x000000c0   Data   RO            3    RESET               startup_stm32l051xx.o
    0x080000c0   0x080000c0   0x00000000   Code   RO         3310  * .ARM.Collect$$$$00000000  mc_p.l(entry.o)
    0x080000c0   0x080000c0   0x00000004   Code   RO         3625    .ARM.Collect$$$$00000001  mc_p.l(entry2.o)
    0x080000c4   0x080000c4   0x00000004   Code   RO         3628    .ARM.Collect$$$$00000004  mc_p.l(entry5.o)
    0x080000c8   0x080000c8   0x00000000   Code   RO         3630    .ARM.Collect$$$$00000008  mc_p.l(entry7b.o)
    0x080000c8   0x080000c8   0x00000000   Code   RO         3632    .ARM.Collect$$$$0000000A  mc_p.l(entry8b.o)
    0x080000c8   0x080000c8   0x00000008   Code   RO         3633    .ARM.Collect$$$$0000000B  mc_p.l(entry9a.o)
    0x080000d0   0x080000d0   0x00000000   Code   RO         3635    .ARM.Collect$$$$0000000D  mc_p.l(entry10a.o)
    0x080000d0   0x080000d0   0x00000000   Code   RO         3637    .ARM.Collect$$$$0000000F  mc_p.l(entry11a.o)
    0x080000d0   0x080000d0   0x00000004   Code   RO         3626    .ARM.Collect$$$$00002712  mc_p.l(entry2.o)
    0x080000d4   0x080000d4   0x0000001c   Code   RO            4    .text               startup_stm32l051xx.o
    0x080000f0   0x080000f0   0x0000002c   Code   RO         3313    .text               mc_p.l(uidiv.o)
    0x0800011c   0x0800011c   0x00000060   Code   RO         3315    .text               mc_p.l(uldiv.o)
    0x0800017c   0x0800017c   0x0000008c   Code   RO         3321    .text               mc_p.l(mktime.o)
    0x08000208   0x08000208   0x00000024   Code   RO         3324    .text               mc_p.l(memcpya.o)
    0x0800022c   0x0800022c   0x00000024   Code   RO         3326    .text               mc_p.l(memseta.o)
    0x08000250   0x08000250   0x00000028   Code   RO         3328    .text               mc_p.l(strstr.o)
    0x08000278   0x08000278   0x0000000e   Code   RO         3330    .text               mc_p.l(strlen.o)
    0x08000286   0x08000286   0x0000001a   Code   RO         3605    .text               mc_p.l(atoi.o)
    0x080002a0   0x080002a0   0x000000b2   Code   RO         3607    .text               mf_p.l(fadd.o)
    0x08000352   0x08000352   0x0000007a   Code   RO         3609    .text               mf_p.l(fmul.o)
    0x080003cc   0x080003cc   0x00000018   Code   RO         3611    .text               mf_p.l(fscalb.o)
    0x080003e4   0x080003e4   0x000000d0   Code   RO         3613    .text               mf_p.l(dmul.o)
    0x080004b4   0x080004b4   0x000000f0   Code   RO         3615    .text               mf_p.l(ddiv.o)
    0x080005a4   0x080005a4   0x0000000e   Code   RO         3617    .text               mf_p.l(ffltui.o)
    0x080005b2   0x080005b2   0x00000002   PAD
    0x080005b4   0x080005b4   0x0000001c   Code   RO         3619    .text               mf_p.l(dfltui.o)
    0x080005d0   0x080005d0   0x00000028   Code   RO         3621    .text               mf_p.l(f2d.o)
    0x080005f8   0x080005f8   0x00000038   Code   RO         3623    .text               mf_p.l(d2f.o)
    0x08000630   0x08000630   0x00000028   Code   RO         3640    .text               mc_p.l(idiv.o)
    0x08000658   0x08000658   0x00000020   Code   RO         3642    .text               mc_p.l(llshl.o)
    0x08000678   0x08000678   0x00000022   Code   RO         3644    .text               mc_p.l(llushr.o)
    0x0800069a   0x0800069a   0x00000002   PAD
    0x0800069c   0x0800069c   0x00000010   Code   RO         3646    .text               mc_p.l(localtime_w.o)
    0x080006ac   0x080006ac   0x00000074   Code   RO         3649    .text               mc_p.l(localtime_i.o)
    0x08000720   0x08000720   0x00000070   Code   RO         3659    .text               mc_p.l(strtol.o)
    0x08000790   0x08000790   0x00000000   Code   RO         3661    .text               mc_p.l(iusefp.o)
    0x08000790   0x08000790   0x00000082   Code   RO         3662    .text               mf_p.l(fepilogue.o)
    0x08000812   0x08000812   0x000000be   Code   RO         3664    .text               mf_p.l(depilogue.o)
    0x080008d0   0x080008d0   0x00000164   Code   RO         3668    .text               mf_p.l(dadd.o)
    0x08000a34   0x08000a34   0x00000040   Code   RO         3670    .text               mf_p.l(dfixul.o)
    0x08000a74   0x08000a74   0x00000028   Code   RO         3672    .text               mf_p.l(cdrcmple.o)
    0x08000a9c   0x08000a9c   0x00000024   Code   RO         3674    .text               mc_p.l(init.o)
    0x08000ac0   0x08000ac0   0x00000026   Code   RO         3676    .text               mc_p.l(llsshr.o)
    0x08000ae6   0x08000ae6   0x00000002   PAD
    0x08000ae8   0x08000ae8   0x00000008   Code   RO         3678    .text               mc_p.l(ctype_o.o)
    0x08000af0   0x08000af0   0x000000a6   Code   RO         3706    .text               mc_p.l(_strtoul.o)
    0x08000b96   0x08000b96   0x0000001e   Code   RO         3708    .text               mc_p.l(_chval.o)
    0x08000bb4   0x08000bb4   0x00000024   Code   RO          698    i.ADC_DelayMicroSecond  stm32l0xx_hal_adc.o
    0x08000bd8   0x08000bd8   0x00000038   Code   RO          236    i.Adc_Calibration   motor.o
    0x08000c10   0x08000c10   0x00000050   Code   RO          319    i.BLE_Chack_Name    bg22.o
    0x08000c60   0x08000c60   0x00000068   Code   RO          320    i.BLE_Enable_AT     bg22.o
    0x08000cc8   0x08000cc8   0x00000050   Code   RO          321    i.BLE_Enable_ATE0   bg22.o
    0x08000d18   0x08000d18   0x00000078   Code   RO          322    i.BLE_Enter_Sleep   bg22.o
    0x08000d90   0x08000d90   0x0000007c   Code   RO          323    i.BLE_Exit_AT       bg22.o
    0x08000e0c   0x08000e0c   0x00000088   Code   RO          324    i.BLE_Send_test     bg22.o
    0x08000e94   0x08000e94   0x000000ac   Code   RO          237    i.BLE_report        motor.o
    0x08000f40   0x08000f40   0x000001f0   Code   RO          325    i.BLE_uart_task     bg22.o
    0x08001130   0x08001130   0x000000d0   Code   RO          168    i.Calibration_Times  my_string.o
    0x08001200   0x08001200   0x00000010   Code   RO          608    i.DMA1_Channel4_5_6_7_IRQHandler  stm32l0xx_it.o
    0x08001210   0x08001210   0x0000002c   Code   RO         2116    i.DMA_SetConfig     stm32l0xx_hal_dma.o
    0x0800123c   0x0800123c   0x0000000a   Code   RO          609    i.EXTI2_3_IRQHandler  stm32l0xx_it.o
    0x08001246   0x08001246   0x00000002   PAD
    0x08001248   0x08001248   0x00000030   Code   RO          540    i.EnableUsart_IT    usart.o
    0x08001278   0x08001278   0x00000002   Code   RO          382    i.Error_Handler     main.o
    0x0800127a   0x0800127a   0x00000002   PAD
    0x0800127c   0x0800127c   0x00000060   Code   RO          170    i.Find_string       my_string.o
    0x080012dc   0x080012dc   0x00000074   Code   RO          238    i.Get_bat_val       motor.o
    0x08001350   0x08001350   0x00000094   Code   RO          702    i.HAL_ADC_ConfigChannel  stm32l0xx_hal_adc.o
    0x080013e4   0x080013e4   0x000001c8   Code   RO          711    i.HAL_ADC_Init      stm32l0xx_hal_adc.o
    0x080015ac   0x080015ac   0x00000050   Code   RO          438    i.HAL_ADC_MspInit   adc.o
    0x080015fc   0x080015fc   0x00000044   Code   RO         2117    i.HAL_DMA_Abort     stm32l0xx_hal_dma.o
    0x08001640   0x08001640   0x0000004c   Code   RO         2118    i.HAL_DMA_Abort_IT  stm32l0xx_hal_dma.o
    0x0800168c   0x0800168c   0x00000004   Code   RO         2120    i.HAL_DMA_GetError  stm32l0xx_hal_dma.o
    0x08001690   0x08001690   0x000000a8   Code   RO         2122    i.HAL_DMA_IRQHandler  stm32l0xx_hal_dma.o
    0x08001738   0x08001738   0x00000090   Code   RO         2123    i.HAL_DMA_Init      stm32l0xx_hal_dma.o
    0x080017c8   0x080017c8   0x00000068   Code   RO         2127    i.HAL_DMA_Start_IT  stm32l0xx_hal_dma.o
    0x08001830   0x08001830   0x00000024   Code   RO          940    i.HAL_Delay         stm32l0xx_hal.o
    0x08001854   0x08001854   0x00000018   Code   RO          541    i.HAL_GPIO_EXTI_Callback  usart.o
    0x0800186c   0x0800186c   0x00000018   Code   RO         2056    i.HAL_GPIO_EXTI_IRQHandler  stm32l0xx_hal_gpio.o
    0x08001884   0x08001884   0x00000178   Code   RO         2057    i.HAL_GPIO_Init     stm32l0xx_hal_gpio.o
    0x080019fc   0x080019fc   0x0000000c   Code   RO         2061    i.HAL_GPIO_WritePin  stm32l0xx_hal_gpio.o
    0x08001a08   0x08001a08   0x0000000c   Code   RO          944    i.HAL_GetTick       stm32l0xx_hal.o
    0x08001a14   0x08001a14   0x00000010   Code   RO          950    i.HAL_IncTick       stm32l0xx_hal.o
    0x08001a24   0x08001a24   0x00000028   Code   RO          951    i.HAL_Init          stm32l0xx_hal.o
    0x08001a4c   0x08001a4c   0x00000044   Code   RO          952    i.HAL_InitTick      stm32l0xx_hal.o
    0x08001a90   0x08001a90   0x00000018   Code   RO          674    i.HAL_MspInit       stm32l0xx_hal_msp.o
    0x08001aa8   0x08001aa8   0x00000014   Code   RO         2384    i.HAL_NVIC_EnableIRQ  stm32l0xx_hal_cortex.o
    0x08001abc   0x08001abc   0x00000008   Code   RO         2388    i.HAL_NVIC_SetPriority  stm32l0xx_hal_cortex.o
    0x08001ac4   0x08001ac4   0x00000010   Code   RO         2326    i.HAL_PWREx_EnableFastWakeUp  stm32l0xx_hal_pwr_ex.o
    0x08001ad4   0x08001ad4   0x00000010   Code   RO         2328    i.HAL_PWREx_EnableUltraLowPower  stm32l0xx_hal_pwr_ex.o
    0x08001ae4   0x08001ae4   0x00000010   Code   RO         2214    i.HAL_PWR_EnableBkUpAccess  stm32l0xx_hal_pwr.o
    0x08001af4   0x08001af4   0x00000034   Code   RO         2221    i.HAL_PWR_EnterSTOPMode  stm32l0xx_hal_pwr.o
    0x08001b28   0x08001b28   0x00000164   Code   RO         1744    i.HAL_RCCEx_PeriphCLKConfig  stm32l0xx_hal_rcc_ex.o
    0x08001c8c   0x08001c8c   0x0000016c   Code   RO         1646    i.HAL_RCC_ClockConfig  stm32l0xx_hal_rcc.o
    0x08001df8   0x08001df8   0x00000020   Code   RO         1652    i.HAL_RCC_GetPCLK1Freq  stm32l0xx_hal_rcc.o
    0x08001e18   0x08001e18   0x00000020   Code   RO         1653    i.HAL_RCC_GetPCLK2Freq  stm32l0xx_hal_rcc.o
    0x08001e38   0x08001e38   0x00000078   Code   RO         1654    i.HAL_RCC_GetSysClockFreq  stm32l0xx_hal_rcc.o
    0x08001eb0   0x08001eb0   0x0000041c   Code   RO         1657    i.HAL_RCC_OscConfig  stm32l0xx_hal_rcc.o
    0x080022cc   0x080022cc   0x0000000c   Code   RO         2625    i.HAL_RTCEx_BKUPRead  stm32l0xx_hal_rtc_ex.o
    0x080022d8   0x080022d8   0x0000000c   Code   RO         2626    i.HAL_RTCEx_BKUPWrite  stm32l0xx_hal_rtc_ex.o
    0x080022e4   0x080022e4   0x0000007a   Code   RO         2631    i.HAL_RTCEx_DeactivateWakeUpTimer  stm32l0xx_hal_rtc_ex.o
    0x0800235e   0x0800235e   0x00000002   PAD
    0x08002360   0x08002360   0x000000f8   Code   RO         2650    i.HAL_RTCEx_SetWakeUpTimer_IT  stm32l0xx_hal_rtc_ex.o
    0x08002458   0x08002458   0x00000044   Code   RO         2496    i.HAL_RTC_GetDate   stm32l0xx_hal_rtc.o
    0x0800249c   0x0800249c   0x0000005c   Code   RO         2498    i.HAL_RTC_GetTime   stm32l0xx_hal_rtc.o
    0x080024f8   0x080024f8   0x000000bc   Code   RO         2499    i.HAL_RTC_Init      stm32l0xx_hal_rtc.o
    0x080025b4   0x080025b4   0x00000020   Code   RO          496    i.HAL_RTC_MspInit   rtc.o
    0x080025d4   0x080025d4   0x000000c4   Code   RO         2505    i.HAL_RTC_SetDate   stm32l0xx_hal_rtc.o
    0x08002698   0x08002698   0x000000e8   Code   RO         2506    i.HAL_RTC_SetTime   stm32l0xx_hal_rtc.o
    0x08002780   0x08002780   0x00000034   Code   RO         2507    i.HAL_RTC_WaitForSynchro  stm32l0xx_hal_rtc.o
    0x080027b4   0x080027b4   0x00000030   Code   RO         2392    i.HAL_SYSTICK_Config  stm32l0xx_hal_cortex.o
    0x080027e4   0x080027e4   0x00000002   Code   RO         3223    i.HAL_UARTEx_WakeupCallback  stm32l0xx_hal_uart_ex.o
    0x080027e6   0x080027e6   0x0000007a   Code   RO         2884    i.HAL_UART_DMAStop  stm32l0xx_hal_uart.o
    0x08002860   0x08002860   0x00000002   Code   RO         2886    i.HAL_UART_ErrorCallback  stm32l0xx_hal_uart.o
    0x08002862   0x08002862   0x00000002   PAD
    0x08002864   0x08002864   0x0000013c   Code   RO         2889    i.HAL_UART_IRQHandler  stm32l0xx_hal_uart.o
    0x080029a0   0x080029a0   0x0000006a   Code   RO         2890    i.HAL_UART_Init     stm32l0xx_hal_uart.o
    0x08002a0a   0x08002a0a   0x00000002   PAD
    0x08002a0c   0x08002a0c   0x000000d4   Code   RO          543    i.HAL_UART_MspInit  usart.o
    0x08002ae0   0x08002ae0   0x000000b8   Code   RO         2894    i.HAL_UART_Receive_DMA  stm32l0xx_hal_uart.o
    0x08002b98   0x08002b98   0x00000048   Code   RO          544    i.HAL_UART_RxCpltCallback  usart.o
    0x08002be0   0x08002be0   0x00000002   Code   RO         2897    i.HAL_UART_RxHalfCpltCallback  stm32l0xx_hal_uart.o
    0x08002be2   0x08002be2   0x000000ce   Code   RO         2898    i.HAL_UART_Transmit  stm32l0xx_hal_uart.o
    0x08002cb0   0x08002cb0   0x00000002   Code   RO         2901    i.HAL_UART_TxCpltCallback  stm32l0xx_hal_uart.o
    0x08002cb2   0x08002cb2   0x00000002   Code   RO          610    i.HardFault_Handler  stm32l0xx_it.o
    0x08002cb4   0x08002cb4   0x00000088   Code   RO          439    i.MX_ADC_Init       adc.o
    0x08002d3c   0x08002d3c   0x00000028   Code   RO          475    i.MX_DMA_Init       dma.o
    0x08002d64   0x08002d64   0x000000ac   Code   RO          417    i.MX_GPIO_Init      gpio.o
    0x08002e10   0x08002e10   0x0000007c   Code   RO          497    i.MX_RTC_Init       rtc.o
    0x08002e8c   0x08002e8c   0x00000038   Code   RO          545    i.MX_USART1_UART_Init  usart.o
    0x08002ec4   0x08002ec4   0x00000038   Code   RO          546    i.MX_USART2_UART_Init  usart.o
    0x08002efc   0x08002efc   0x00000028   Code   RO          239    i.Motor_Forward     motor.o
    0x08002f24   0x08002f24   0x00000028   Code   RO          240    i.Motor_Reverse     motor.o
    0x08002f4c   0x08002f4c   0x000001a8   Code   RO          242    i.Motor_Task        motor.o
    0x080030f4   0x080030f4   0x00000002   Code   RO          611    i.NMI_Handler       stm32l0xx_it.o
    0x080030f6   0x080030f6   0x00000002   PAD
    0x080030f8   0x080030f8   0x00000044   Code   RO         2394    i.NVIC_SetPriority  stm32l0xx_hal_cortex.o
    0x0800313c   0x0800313c   0x00000002   Code   RO          612    i.PendSV_Handler    stm32l0xx_it.o
    0x0800313e   0x0800313e   0x00000010   Code   RO         2508    i.RTC_Bcd2ToByte    stm32l0xx_hal_rtc.o
    0x0800314e   0x0800314e   0x00000018   Code   RO         2509    i.RTC_ByteToBcd2    stm32l0xx_hal_rtc.o
    0x08003166   0x08003166   0x00000038   Code   RO         2510    i.RTC_EnterInitMode  stm32l0xx_hal_rtc.o
    0x0800319e   0x0800319e   0x00000002   PAD
    0x080031a0   0x080031a0   0x00000050   Code   RO           12    i.RTC_Time_Config   wakeup.o
    0x080031f0   0x080031f0   0x00000002   Code   RO          613    i.SVC_Handler       stm32l0xx_it.o
    0x080031f2   0x080031f2   0x00000002   PAD
    0x080031f4   0x080031f4   0x00000070   Code   RO          243    i.Switch_work       motor.o
    0x08003264   0x08003264   0x00000008   Code   RO          614    i.SysTick_Handler   stm32l0xx_it.o
    0x0800326c   0x0800326c   0x00000120   Code   RO           13    i.SystemClockConfig_STOP  wakeup.o
    0x0800338c   0x0800338c   0x00000094   Code   RO          383    i.SystemClock_Config  main.o
    0x08003420   0x08003420   0x00000054   Code   RO         3279    i.SystemInit        system_stm32l0xx.o
    0x08003474   0x08003474   0x000000b0   Code   RO           14    i.SystemPower_Config  wakeup.o
    0x08003524   0x08003524   0x000000ca   Code   RO         2903    i.UART_AdvFeatureConfig  stm32l0xx_hal_uart.o
    0x080035ee   0x080035ee   0x00000002   PAD
    0x080035f0   0x080035f0   0x00000060   Code   RO         2904    i.UART_CheckIdleState  stm32l0xx_hal_uart.o
    0x08003650   0x08003650   0x00000014   Code   RO         2905    i.UART_DMAAbortOnError  stm32l0xx_hal_uart.o
    0x08003664   0x08003664   0x00000048   Code   RO         2906    i.UART_DMAError     stm32l0xx_hal_uart.o
    0x080036ac   0x080036ac   0x0000003e   Code   RO         2907    i.UART_DMAReceiveCplt  stm32l0xx_hal_uart.o
    0x080036ea   0x080036ea   0x0000000a   Code   RO         2909    i.UART_DMARxHalfCplt  stm32l0xx_hal_uart.o
    0x080036f4   0x080036f4   0x00000020   Code   RO         2915    i.UART_EndRxTransfer  stm32l0xx_hal_uart.o
    0x08003714   0x08003714   0x00000010   Code   RO         2916    i.UART_EndTxTransfer  stm32l0xx_hal_uart.o
    0x08003724   0x08003724   0x00000228   Code   RO         2919    i.UART_SetConfig    stm32l0xx_hal_uart.o
    0x0800394c   0x0800394c   0x00000062   Code   RO         2922    i.UART_WaitOnFlagUntilTimeout  stm32l0xx_hal_uart.o
    0x080039ae   0x080039ae   0x00000002   PAD
    0x080039b0   0x080039b0   0x00000050   Code   RO          615    i.USART2_IRQHandler  stm32l0xx_it.o
    0x08003a00   0x08003a00   0x00000020   Code   RO         3577    i.__0printf         mc_p.l(printfa.o)
    0x08003a20   0x08003a20   0x00000028   Code   RO         3579    i.__0sprintf        mc_p.l(printfa.o)
    0x08003a48   0x08003a48   0x0000002e   Code   RO         3666    i.__ARM_clz         mf_p.l(depilogue.o)
    0x08003a76   0x08003a76   0x0000001a   Code   RO          295    i.__ARM_common_switch8  motor.o
    0x08003a90   0x08003a90   0x00000008   Code   RO         3652    i.__aeabi_errno_addr  mc_p.l(errno.o)
    0x08003a98   0x08003a98   0x0000000e   Code   RO         3712    i.__scatterload_copy  mc_p.l(handlers.o)
    0x08003aa6   0x08003aa6   0x00000002   Code   RO         3713    i.__scatterload_null  mc_p.l(handlers.o)
    0x08003aa8   0x08003aa8   0x0000000e   Code   RO         3714    i.__scatterload_zeroinit  mc_p.l(handlers.o)
    0x08003ab6   0x08003ab6   0x00000002   PAD
    0x08003ab8   0x08003ab8   0x00000174   Code   RO         3584    i._fp_digits        mc_p.l(printfa.o)
    0x08003c2c   0x08003c2c   0x000006ec   Code   RO         3585    i._printf_core      mc_p.l(printfa.o)
    0x08004318   0x08004318   0x00000020   Code   RO         3586    i._printf_post_padding  mc_p.l(printfa.o)
    0x08004338   0x08004338   0x0000002c   Code   RO         3587    i._printf_pre_padding  mc_p.l(printfa.o)
    0x08004364   0x08004364   0x0000000a   Code   RO         3589    i._sputc            mc_p.l(printfa.o)
    0x0800436e   0x0800436e   0x00000002   PAD
    0x08004370   0x08004370   0x0000001c   Code   RO          547    i.fputc             usart.o
    0x0800438c   0x0800438c   0x00000110   Code   RO          384    i.main              main.o
    0x0800449c   0x0800449c   0x000000c8   Code   RO          498    i.time2Stamp        rtc.o
    0x08004564   0x08004564   0x00000019   Data   RO         3280    .constdata          system_stm32l0xx.o
    0x0800457d   0x0800457d   0x00000008   Data   RO         3281    .constdata          system_stm32l0xx.o
    0x08004585   0x08004585   0x0000000c   Data   RO         3322    .constdata          mc_p.l(mktime.o)
    0x08004591   0x08004591   0x0000000c   Data   RO         3650    .constdata          mc_p.l(localtime_i.o)
    0x0800459d   0x0800459d   0x00000081   Data   RO         3679    .constdata          mc_p.l(ctype_o.o)
    0x0800461e   0x0800461e   0x00000002   PAD
    0x08004620   0x08004620   0x00000004   Data   RO         3680    .constdata          mc_p.l(ctype_o.o)
    0x08004624   0x08004624   0x00000020   Data   RO         3710    Region$$Table       anon$$obj.o


    Execution Region RW_IRAM1 (Exec base: 0x20000000, Load base: 0x08004644, Size: 0x00000be8, Max: 0x00002000, ABSOLUTE)

    Exec Addr    Load Addr    Size         Type   Attr      Idx    E Section Name        Object

    0x20000000   0x08004644   0x00000010   Data   RW          245    .data               motor.o
    0x20000010   0x08004654   0x00000008   Data   RW          326    .data               bg22.o
    0x20000018   0x0800465c   0x00000004   Data   RW          500    .data               rtc.o
    0x2000001c   0x08004660   0x0000000c   Data   RW          962    .data               stm32l0xx_hal.o
    0x20000028   0x0800466c   0x00000004   Data   RW         3282    .data               system_stm32l0xx.o
    0x2000002c   0x08004670   0x00000004   Data   RW         3639    .data               mc_p.l(stdout.o)
    0x20000030   0x08004674   0x00000004   Data   RW         3655    .data               mc_p.l(errno.o)
    0x20000034        -       0x00000020   Zero   RW          244    .bss                motor.o
    0x20000054        -       0x0000005c   Zero   RW          440    .bss                adc.o
    0x200000b0        -       0x00000038   Zero   RW          499    .bss                rtc.o
    0x200000e8        -       0x000002d0   Zero   RW          548    .bss                usart.o
    0x200003b8        -       0x0000002c   Zero   RW         3647    .bss                mc_p.l(localtime_w.o)
    0x200003e4   0x08004678   0x00000004   PAD
    0x200003e8        -       0x00000800   Zero   RW            1    STACK               startup_stm32l051xx.o


==============================================================================

Image component sizes


      Code (inc. data)   RO Data    RW Data    ZI Data      Debug   Object Name

       216         24          0          0         92       1535   adc.o
      1140        368          0          8          0       4381   bg22.o
        40          4          0          0          0        686   dma.o
       172         14          0          0          0        887   gpio.o
       422        130          0          0          0       1980   main.o
       986        268          0         16         32       6035   motor.o
       304         68          0          0          0       2710   my_string.o
       356         88          0          4         56       2162   rtc.o
        28          8        192          0       2048        604   startup_stm32l051xx.o
       172         28          0         12          0       8465   stm32l0xx_hal.o
       640         26          0          0          0       2811   stm32l0xx_hal_adc.o
       144         24          0          0          0      10497   stm32l0xx_hal_cortex.o
       608         12          0          0          0       5297   stm32l0xx_hal_dma.o
       412         36          0          0          0       2839   stm32l0xx_hal_gpio.o
        24          4          0          0          0        410   stm32l0xx_hal_msp.o
        68         12          0          0          0       1083   stm32l0xx_hal_pwr.o
        32          8          0          0          0        985   stm32l0xx_hal_pwr_ex.o
      1600         90          0          0          0       5344   stm32l0xx_hal_rcc.o
       356         14          0          0          0       1396   stm32l0xx_hal_rcc_ex.o
       924         18          0          0          0       6924   stm32l0xx_hal_rtc.o
       394         10          0          0          0       3863   stm32l0xx_hal_rtc_ex.o
      2100         96          0          0          0      13758   stm32l0xx_hal_uart.o
         2          0          0          0          0        928   stm32l0xx_hal_uart_ex.o
       122         18          0          0          0       3409   stm32l0xx_it.o
        84         18         33          4          0       1147   system_stm32l0xx.o
       496         88          0          0        720       4597   usart.o
       544         92          0          0          0     333204   wakeup.o

    ----------------------------------------------------------------------
     12406       1566        257         44       2948     427937   Object Totals
         0          0         32          0          0          0   (incl. Generated)
        20          0          0          0          0          0   (incl. Padding)

    ----------------------------------------------------------------------

      Code (inc. data)   RO Data    RW Data    ZI Data      Debug   Library Member Name

        30          0          0          0          0         60   _chval.o
       166          0          0          0          0         84   _strtoul.o
        26          0          0          0          0         72   atoi.o
         8          4        133          0          0         60   ctype_o.o
         0          0          0          0          0          0   entry.o
         0          0          0          0          0          0   entry10a.o
         0          0          0          0          0          0   entry11a.o
         8          4          0          0          0          0   entry2.o
         4          0          0          0          0          0   entry5.o
         0          0          0          0          0          0   entry7b.o
         0          0          0          0          0          0   entry8b.o
         8          4          0          0          0          0   entry9a.o
         8          4          0          4          0         60   errno.o
        30          0          0          0          0          0   handlers.o
        40          0          0          0          0         72   idiv.o
        36          8          0          0          0         68   init.o
         0          0          0          0          0          0   iusefp.o
        32          0          0          0          0         68   llshl.o
        38          0          0          0          0         68   llsshr.o
        34          0          0          0          0         68   llushr.o
       116         12         12          0          0         72   localtime_i.o
        16          6          0          0         44         68   localtime_w.o
        36          0          0          0          0         60   memcpya.o
        36          0          0          0          0        100   memseta.o
       140         16         12          0          0         72   mktime.o
      2302        102          0          0          0        556   printfa.o
         0          0          0          4          0          0   stdout.o
        14          0          0          0          0         60   strlen.o
        40          0          0          0          0         72   strstr.o
       112          4          0          0          0         76   strtol.o
        44          0          0          0          0         72   uidiv.o
        96          0          0          0          0         84   uldiv.o
        40          2          0          0          0         68   cdrcmple.o
        56          0          0          0          0         68   d2f.o
       356          4          0          0          0        140   dadd.o
       240          6          0          0          0         84   ddiv.o
       236          0          0          0          0        216   depilogue.o
        64         10          0          0          0         68   dfixul.o
        28          4          0          0          0         68   dfltui.o
       208          6          0          0          0         88   dmul.o
        40          0          0          0          0         60   f2d.o
       178          0          0          0          0        108   fadd.o
       130          0          0          0          0        144   fepilogue.o
        14          0          0          0          0         68   ffltui.o
       122          0          0          0          0         72   fmul.o
        24          0          0          0          0         60   fscalb.o

    ----------------------------------------------------------------------
      5166        196        159          8         48       3284   Library Totals
        10          0          2          0          4          0   (incl. Padding)

    ----------------------------------------------------------------------

      Code (inc. data)   RO Data    RW Data    ZI Data      Debug   Library Name

      3420        164        157          8         44       1972   mc_p.l
      1736         32          0          0          0       1312   mf_p.l

    ----------------------------------------------------------------------
      5166        196        159          8         48       3284   Library Totals

    ----------------------------------------------------------------------

==============================================================================


      Code (inc. data)   RO Data    RW Data    ZI Data      Debug   

     17572       1762        416         52       2996     424853   Grand Totals
     17572       1762        416         52       2996     424853   ELF Image Totals
     17572       1762        416         52          0          0   ROM Totals

==============================================================================

    Total RO  Size (Code + RO Data)                17988 (  17.57kB)
    Total RW  Size (RW Data + ZI Data)              3048 (   2.98kB)
    Total ROM Size (Code + RO Data + RW Data)      18040 (  17.62kB)

==============================================================================

